:100000000C945E000C9486000C9486000C94860080
:100010000C9486000C9486000C9486000C94860048
:100020000C9486000C9486000C9486000C94860038
:100030000C9486000C9486000C9486000C94860028
:100040000C94A4030C9486000C9472030C944C033F
:100050000C9486000C9486000C9486000C94860008
:100060000C94EE030C9486001F1C1F1E1F1E1F1FE6
:100070001E1F1E00000000250028002B00040404A1
:100080000404040404020202020202030303030341
:10009000030102040810204080010204081020011E
:1000A0000204081020000000080002010000030400
:1000B000070000000000000000000D0511241FBE15
:1000C000CFEFD8E0DEBFCDBF22E0A8E9B1E001C0AC
:1000D0001D92AE3FB207E1F711E0A0E0B1E0E4EC21
:1000E000FFE002C005900D92A839B107D9F710E0E2
:1000F000CEE5D0E004C02197FE010E94DA07CD359D
:10010000D107C9F70E9446050C94E0070C94000043
:1001100090E0FC01EB55FF4F2491FC01EF56FF4F9F
:100120003491FC01E358FF4FE491EE23B1F0222318
:1001300039F02330E9F090F4213001F1223011F14F
:10014000F0E0EE0FFF1FED58FF4FA591B4918FB770
:10015000F894EC913E2B3C938FBF08952730A9F083
:100160002830C9F0243061F7809180008F7D03C072
:10017000809180008F7780938000E2CF84B58F7765
:1001800084BDDECF84B58F7DFBCF8091B0008F77AB
:100190008093B000D5CF8091B0008F7DF9CF0895C6
:1001A0000895AF92BF92CF92DF92EF92FF920F939A
:1001B0001F93CF93DF936C017B018B01040F151FFD
:1001C000EB015E01AE18BF08C017D10759F0699165
:1001D000D601ED91FC910190F081E02DC6010995C9
:1001E000892B79F7C501DF91CF911F910F91FF9076
:1001F000EF90DF90CF90BF90AF900895FC01538DAA
:10020000448D252F30E0842F90E0821B930B5417F0
:1002100010F0CF96089501970895FC01918D828D7D
:10022000981761F0A28DAE0FBF2FB11D5D968C9116
:10023000928D9F5F9F73928F90E008958FEF9FEF55
:100240000895FC01918D828D981731F0828DE80F11
:10025000F11D858D90E008958FEF9FEF0895FC01CB
:10026000918D228D892F90E0805C9F4F821B910998
:100270008F739927089585E592E00E942F0121E070
:10028000892B09F420E0822F089580E090E0892BEB
:1002900029F00E943B0181110C9400000895FC019B
:1002A000A48DA80FB92FB11DA35ABF4F2C91848DD7
:1002B00090E001968F739927848FA689B7892C9334
:1002C000A089B1898C91837080648C93938D848D87
:1002D000981306C00288F389E02D80818F7D80838A
:1002E0000895EF92FF920F931F93CF93DF93EC014A
:1002F00081E0888F9B8D8C8D98131AC0E889F989CD
:10030000808185FF15C09FB7F894EE89FF896083CF
:10031000E889F98980818370806480839FBF81E050
:1003200090E0DF91CF911F910F91FF90EF90089592
:10033000F62E0B8D10E00F5F1F4F0F731127E02E6D
:100340008C8D8E110CC00FB607FCFACFE889F989A5
:10035000808185FFF5CFCE010E944F01F1CFEB8D5B
:10036000EC0FFD2FF11DE35AFF4FF0829FB7F89479
:100370000B8FEA89FB8980818062CFCF682F85E56A
:1003800092E00C947101CF93DF93EC01888D882368
:10039000B9F0AA89BB89E889F9898C9185FD03C0E8
:1003A000808186FD0DC00FB607FCF7CF8C9185FFCD
:1003B000F2CF808185FFEDCFCE010E944F01E9CFC2
:1003C000DF91CF9108953FB7F8948091E00190912B
:1003D000E101A091E201B091E30126B5A89B05C01F
:1003E0002F3F19F00196A11DB11D3FBFBA2FA92FB4
:1003F000982F8827BC01CD01620F711D811D911DB1
:1004000042E0660F771F881F991F4A95D1F708951C
:100410008F929F92AF92BF92CF92DF92EF92FF9214
:100420004B015C010E94E3016B017C010E94E3012E
:100430006C197D098E099F09683E734081059105FD
:10044000A8F321E0821A9108A108B10888EEC80E2D
:1004500083E0D81EE11CF11C81149104A104B104B5
:1004600029F7FF90EF90DF90CF90BF90AF909F90D3
:100470008F90089585ED8093BC008091BC0084FD31
:10048000FCCF1092320208952091B801260F332735
:10049000331F21323105ECF420913202FC0190E04F
:1004A00080E0243069F082E00895A091B8012191A4
:1004B000AC0148565E4FA40FB52FB11D2C93019689
:1004C000861798F38091B801680F6093B80180E0B7
:1004D000089581E008950895E091340280913302F7
:1004E000E81730F4F0E0EB5CFD4F808190E0089578
:1004F0008FEF9FEF089590913402809133022FEF98
:100500003FEF981748F4E92FF0E0EB5CFD4F2081B6
:1005100030E09F5F90933402C901089580913302C7
:1005200090913402891B990B0895CF92DF92EF923C
:10053000FF920F931F93CF93DF937C01CB018A012E
:100540002091E801222389F0EB016B01C40ED51E36
:10055000CC15DD0569F06991D701ED91FC91019011
:10056000F081E02DC7010995F3CF642F0E9444026A
:10057000C801DF91CF911F910F91FF90EF90DF9015
:10058000CF900895CF93DF931F92CDB7DEB76983E5
:100590002091E8012223F9F020910B02203258F03B
:1005A00021E030E0FC013383228390E080E00F9073
:1005B000DF91CF9108958091E901E82FF0E0E651B5
:1005C000FE4F998190838F5F8093E90180930B02A6
:1005D00081E090E0ECCF61E0CE0101960E94440200
:1005E000F7CF90E080E00895FC0101900020E9F74A
:1005F0003197AF01481B590BBC0185E592E00C9483
:10060000D1008F929F92AF92BF920F931F93CF937F
:10061000DF93CDB7DEB7A1970FB6F894DEBF0FBE5C
:10062000CDBF19A2423008F44AE08E010F5D1F4F82
:10063000842E912CB12CA12CA50194010E94B80705
:10064000E62FB901CA01EA30F4F4E05DD801EE9377
:100650008D01232B242B252B79F790E080E0109738
:1006600019F0CD010E94F402A1960FB6F894DEBFF6
:100670000FBECDBFDF91CF911F910F91BF90AF9073
:100680009F908F900895E95CE1CF682F70E090E033
:1006900080E04AE00C9401031F920F920FB60F9274
:1006A00011242F933F934F935F936F937F938F9377
:1006B0009F93AF93BF93EF93FF9385E592E00E94E2
:1006C0004F01FF91EF91BF91AF919F918F917F91DA
:1006D0006F915F914F913F912F910F900FBE0F90AF
:1006E0001F9018951F920F920FB60F9211242F93FF
:1006F0008F939F93EF93FF93E0916502F0916602D1
:100700008081E0916B02F0916C0282FD1BC09081B0
:1007100080916E028F5F8F7320916F02821741F07C
:10072000E0916E02F0E0EB5AFD4F958F80936E02E0
:10073000FF91EF919F918F912F910F900FBE0F908E
:100740001F9018958081F4CF1F920F920FB60F92D1
:1007500011242F933F938F939F93AF93BF938091D7
:10076000DC019091DD01A091DE01B091DF013091BB
:10077000DB0123E0230F2D3758F50196A11DB11D94
:100780002093DB018093DC019093DD01A093DE01D7
:10079000B093DF018091E0019091E101A091E2012D
:1007A000B091E3010196A11DB11D8093E0019093EA
:1007B000E101A093E201B093E301BF91AF919F915A
:1007C0008F913F912F910F900FBE0F901F90189512
:1007D00026E8230F0296A11DB11DD2CF1F920F92C2
:1007E0000FB60F9211242F933F934F935F936F9304
:1007F0007F938F939F93AF93BF93EF93FF938091DA
:10080000B900887F803609F44AC0F0F5883209F4CF
:10081000A7C018F5803109F49BC0B8F4882309F407
:10082000F9C0883009F494C0FF91EF91BF91AF9166
:100830009F918F917F916F915F914F913F912F91F8
:100840000F900FBE0F901F901895883109F488C043
:10085000803251F78093300214C0803409F49DC077
:1008600040F48033B9F38833F9F68093300285EC95
:10087000B0C0803509F485C0883509F496C0883445
:1008800099F60E943A02D0CF883909F48CC038F525
:10089000883729F050F4883611F0803729F683E044
:1008A000809332021092DA0157C0883809F47BC075
:1008B000803919F0803809F0B7CF8091DA018032A1
:1008C00008F071C0E091DA0181E08E0F8093DA01C7
:1008D0008091BB00F0E0E654FE4F80833DC0803B3A
:1008E00039F0E0F4803A09F479C0883A09F09CCFF5
:1008F00084E0809332021092B9011092B801E09125
:10090000E601F091E70109958091B80181110FC0CE
:1009100081E08093B8011092980109C0803C09F4ED
:10092000A6CF883C09F4A3CF883B09F07DCFE091A6
:10093000B90181E08E0F8093B901F0E0E856FE4FD7
:1009400080818093BB009091B9018091B80129C04A
:1009500080912D028093BB0085EC8093BC0064CF16
:1009600090912F0280912E02981758F5E0912F0256
:1009700081E08E0F80932F02F0E0E45FFD4F8081D5
:10098000E9CFE0912F0281E08E0F80932F028091BA
:10099000BB00F0E0E45FFD4F808390912F028091D7
:1009A0002E029817C8F285E8D8CFE0912F0281E097
:1009B0008E0F80932F028091BB00F0E0E45FFD4F2B
:1009C00080838091310281115CCF81E080932C0281
:1009D00084EA8093BC001092320226CF85EC80938B
:1009E000BC00109232028091DA01803230F4E09142
:1009F000DA01F0E0E654FE4F10826091DA0170E017
:100A0000E091E401F091E5018AEB91E00995109203
:100A1000DA010ACF1092300234CFE5E5F2E013821A
:100A2000128288EE93E0A0E0B0E084839583A683F1
:100A3000B78328E531E03183208325EC30E035872A
:100A4000248724EC30E03787268720EC30E0318B98
:100A5000208B21EC30E0338B228B22EC30E0358B85
:100A6000248B26EC30E0378B268B118E128E138E62
:100A7000148EE2EFF2E01382128284839583A683C0
:100A8000B7838AE691E0918380830895789484B552
:100A9000826084BD84B5816084BD85B5826085BD7A
:100AA00085B5816085BD80916E00816080936E0008
:100AB00010928100809181008260809381008091FA
:100AC00081008160809381008091800081608093AB
:100AD00080008091B10084608093B1008091B0006B
:100AE00081608093B00080917A00846080937A0066
:100AF00080917A00826080937A0080917A00816090
:100B000080937A0080917A00806880937A001092B6
:100B1000C100E0916502F091660282E08083E0917D
:100B20006102F09162021082E0916302F09164022E
:100B30008FEC808310926D02E0916902F0916A025D
:100B400086E08083E0916702F09168028081806195
:100B50008083E0916702F0916802808188608083E1
:100B6000E0916702F0916802808180688083E09163
:100B70006702F091680280818F7D808368EB7BE063
:100B800080E090E00E94080210923402109233023A
:100B90001092E90110920B021092320281E08093D0
:100BA000310210922C0282E10E94880083E10E94AF
:100BB00088008091B9008E7F8093B9008091B90040
:100BC0008D7F8093B90088E48093B80085E480939A
:100BD000BC008FEC90E09093E7018093E60180EDFC
:100BE00090E09093E5018093E401CDE6EC2EFF24A4
:100BF000F394D7E0CD2ED12C22242A94332433949D
:100C0000B0E0AB2EB0E0BB2E3092E80148E6409356
:100C10000A021092E90110920B0260E082EF92E06A
:100C20000E94C20290910B029132E8F5809132024B
:100C30008111FCCF82E08093320230923102209207
:100C4000300210922F0290932E02AAEEB1E0ECE057
:100C5000F2E080E0981313C110922D0280912D02D2
:100C6000806D80932D0280912C02813009F00BC1A0
:100C700010922C0280912D028093BB008091BC00C9
:100C800083FDF8CF45EC4093BC0080913202823066
:100C9000E1F3809130028F3F31F080913002803259
:100CA00011F0809130021092E90110920B02109223
:100CB000E801809132028111FCCF309232023092F1
:100CC00031022092300210922F0246E040932E0211
:100CD00030922D0280912D02806D80932D028091A3
:100CE0002C02813009F0D3C010922C0280912D0289
:100CF0008093BB008091BC0083FDF8CF85EC80938E
:100D0000BC00809132028130E1F380912F0297E0A4
:100D1000873010F490912F02ECE0F2E0A5E3B2E00E
:100D200080E08913B8C0109234028093330282EFBE
:100D300092E00E947B028F77282F30E054E03595B7
:100D400027955A95E1F7922F990F990F622E691AFC
:100D5000660C680E82EF92E00E947B029C0164E0C8
:100D6000359527956A95E1F72F703327922F990FC4
:100D7000990F522E591A550C580E82EF92E00E948C
:100D80007B029C0174E0359527957A95E1F72F70E9
:100D90003327922F990F990F422E491A440C480E6F
:100DA00082EF92E00E947B0282EF92E00E947B023F
:100DB0009C01E4E035952795EA95E1F72F703327FC
:100DC000922F990F990FC22FC91BCC0FC80F82EF1A
:100DD00092E00E947B029C01F4E035952795FA95FC
:100DE000E1F72F703327922F990F990F722E791AEE
:100DF000770C780E82EF92E00E947B029C01A4E0C7
:100E000035952795AA95E1F72F703327922F990FE3
:100E1000990FD22FD91BDD0FD80F8D2E912C840165
:100E20000053184F88E791E00E94F4028EE891E0A9
:100E30000E94F402B801012E000C880B990B4AE0C5
:100E40000E9401038FE20E94BE01872D0E9445038C
:100E50008FE20E94BE018C2F0E94450381E991E040
:100E60000E94F4022C2F30E0E8E6F0E081E08715E4
:100E7000B0F49491290F311D8F5F3196F8CF2D91E9
:100E800021938F5FE7CE85EE8093BC00FECE45EECA
:100E90004093BC0036CF21912D938F5F42CF82E0EB
:100EA000871520F4D37011F42F5F3F4FC8018D5C7C
:100EB000974096958795969587958E9C80018F9CF7
:100EC000100D9E9C100D1124800F911F0596820F0E
:100ED000931FB6010E94A4074CE0489F9001499FD0
:100EE000300D1124C90180509F4F0E94F40284E903
:100EF00091E00E94F402842D0E9445038AE30E943F
:100F0000BE01852D0E9445038AE30E94BE01862D05
:100F10000E9445038EE891E00E94F4028EE891E081
:100F20000E94F40268EE73E080E090E00E94080204
:100F3000A114B10409F468CE0E943B01882309F48E
:100F400063CE0E9400005ACEAA1BBB1B51E107C012
:100F5000AA1FBB1FA617B70710F0A61BB70B881F49
:100F6000991F5A95A9F780959095BC01CD010895D8
:100F7000A1E21A2EAA1BBB1BFD010DC0AA1FBB1F9D
:100F8000EE1FFF1FA217B307E407F50720F0A21B0F
:100F9000B30BE40BF50B661F771F881F991F1A947C
:100FA00069F760957095809590959B01AC01BD01A6
:100FB000CF010895EE0FFF1F0590F491E02D0994E5
:040FC000F894FFCFD3
:100FC40050617A61720000000000000050617A6193
:100FD400727465736900000053616C69000000005D
:100FE4000000000043617273616D626100000000E3
:100FF40050657273656D62650000000043756D6134
:10100400000000000000000043756D617274657398
:1010140069000000000000007101D100FE00C3015E
:101024002F010D01210100000000C2029502F1020E
:101034006B028E027B026C0243757272656E7420C1
:101044004461746520262054696D653A20000D0AB8
:08105400002028002920000003
:00000001FF
