:100000000C9459050C9481050C9481050C94810580
:100010000C9481050C9481050C9481050C94810548
:100020000C9481050C9481050C9481050C94810538
:100030000C9481050C9481050C9481050C94810528
:100040000C9405150C9481050C94D3140C94AD14E8
:100050000C9481050C9481050C9481050C94810508
:100060000C944F150C9481052200FF210000010320
:10007000070F1F3F7F0080C0E0F0F8FCFE0000008B
:1000800000003E5B4F5B3E3E6B4F6B3E1C3E7C3E3A
:100090001C183C7E3C181C577D571C1C5E7F5E1C48
:1000A00000183C1800FFE7C3E7FF0018241800FF02
:1000B000E7DBE7FF30483A060E2629792926407FFC
:1000C000050507407F05253F5A3CE73C5A7F3E1C0B
:1000D0001C08081C1C3E7F14227F22145F5F005FF7
:1000E0005F06097F017F006689956A6060606060D5
:1000F00094A2FFA29408047E040810207E20100819
:10010000082A1C08081C2A08081E101010100C1EB3
:100110000C1E0C30383E3830060E3E0E0600000035
:10012000000000005F00000007000700147F147F3C
:1001300014242A7F2A122313086462364956205059
:100140000008070300001C2241000041221C002A75
:100150001C7F1C2A08083E08080080703000080830
:10016000080808000060600020100804023E5149A1
:10017000453E00427F400072494949462141494D70
:10018000331814127F1027454545393C4A494931F7
:1001900041211109073649494936464949291E0076
:1001A0000014000000403400000008142241141420
:1001B000141414004122140802015909063E415D3D
:1001C000594E7C1211127C7F494949363E414141CA
:1001D000227F4141413E7F494949417F0909090147
:1001E0003E414151737F0808087F00417F41002054
:1001F00040413F017F081422417F404040407F0240
:100200001C027F7F0408107F3E4141413E7F090967
:1002100009063E4151215E7F09192946264949496F
:100220003203017F01033F4040403F1F2040201F19
:100230003F4038403F6314081463030478040361AB
:1002400059494D43007F41414102040810200041BB
:1002500041417F0402010204404040404000030746
:10026000080020545478407F28444438384444449B
:1002700028384444287F385454541800087E090212
:1002800018A4A49C787F0804047800447D400020D2
:1002900040403D007F1028440000417F40007C0426
:1002A0007804787C080404783844444438FC1824E2
:1002B000241818242418FC7C0804040848545454B6
:1002C0002404043F44243C4040207C1C2040201C4B
:1002D0003C4030403C44281028444C9090907C4452
:1002E00064544C440008364100000077000000418F
:1002F00036080002010204023C2623263C1EA1A16E
:1003000061123A4040207A38545455592155557954
:100310004122545478422155547840205455794014
:100320000C1E527212395555555939545454593975
:10033000555454580000457C410002457D4200015F
:10034000457C407D1211127DF0282528F07C545503
:1003500045002054547C547C0A097F49324949495C
:10036000323A4444443A324A4848303A4141217A88
:100370003A42402078009DA0A07D3D4242423D3D52
:100380004040403D3C24FF2424487E4943662B2FB7
:10039000FC2F2BFF0929F620C0887E090320545426
:1003A00079410000447D413048484A32384040227B
:1003B0007A007A0A0A727D0D19317D2629292F28A3
:1003C000262929292630484D4020380808080808E1
:1003D000080808382F10C8ACBA2F102834FA0000CB
:1003E0007B000008142A142222142A1408550055F0
:1003F0000055AA55AA55AAFF55FF55FF000000FF5A
:1004000000101010FF00141414FF001010FF00FF64
:100410001010F010F0141414FC001414F700FF0076
:1004200000FF00FF1414F404FC141417101F101024
:100430001F101F1414141F00101010F000000000F3
:100440001F101010101F10101010F010000000FFEF
:10045000101010101010101010FF10000000FF14EA
:100460000000FF00FF00001F10170000FC04F41440
:10047000141710171414F404F40000FF00F71414F8
:100480001414141414F700F7141414171410101F74
:10049000101F141414F4141010F010F000001F10AA
:1004A0001F0000001F14000000FC140000F010F0FA
:1004B0001010FF10FF141414FF141010101F000070
:1004C0000000F010FFFFFFFFFFF0F0F0F0F0FFFF83
:1004D000FF0000000000FFFF0F0F0F0F0F38444414
:1004E0003844FC4A4A4A347E02020606027E027EF4
:1004F0000263554941633844443C04407E201E2039
:1005000006027E020299A5E7A5991C2A492A1C4CDD
:100510007201724C304A4D4D303048784830BC62E0
:100520005A463D3E494949007E0101017E2A2A2A58
:100530002A2A44445F444440514A444040444A517A
:10054000400000FF0103E080FF000008086B6B081B
:100550003612362436060F090F0600001818000060
:10056000001010003040FF0101001F01011E0019A2
:100570001D1712003C3C3C3C000000000000000045
:1005800000230026002900000000080002010000EE
:100590000304070000000000000000000000002429
:1005A0000027002A00DB40A4A62EAFDA0281DA126F
:1005B00081DA02818F2000A1C8D300408DAED580A2
:1005C000A801020408102040800102040810200144
:1005D000020408102000000000250028002B000461
:1005E00004040404040404020202020202030303DA
:1005F0000303030000600000000000000000000092
:1006000000000000E000000000000000000000000A
:10061000000001E0000000000000000000000000F9
:100620000001F000000000000000000000000000D9
:1006300003F00000000000000000000000000007C0
:10064000F00000000000000000000000000007F8BB
:10065000000000000000000000000000000FF80093
:10066000000003C0007E000001E0007F0FF80000E2
:100670000003C000FE000001E000FFEFF8000000F2
:1006800003C000FE000001E000FFFFF800000003CF
:10069000C000F00000000F007FFE7FC0000003C01C
:1006A00000F00000000F003FFE7FF83FF1FBCFFCA1
:1006B000FEF3BC3DEFE01FFE7FFF7FFBFFDFFEFE92
:1006C000FFBC3DEFE01FC6FFFF7FFBFFDFFEFEFF2D
:1006D000BC3DEFE00FE3C7FE787BC3DE1EF0FFBC3E
:1006E0003DEF0007FF87FC787BC3DE1EF0F83C3D42
:1006F000EF0001FFFFF0007BC3C01EF0F03C3DEFB8
:100700000001F37FE03FFBC3CFFEF0F03C3DEF0084
:1007100003E33F807FFBC3DFFEF0F03C3DEF0007CB
:10072000E73C00787BC3DE1EF0F03C3DEF0007FFA6
:10073000BE00787BC3DE1EF0F03C3DEF0007FFFEFD
:1007400000787BC3DE1EF0F03C3DEF000FFFFE00A3
:100750007FFBFFDFFEF0F03FFDEFE00FFFFF007FCC
:10076000FBFFDFFEF0F03FFDEFE00FF9FF003E7909
:10077000F9CF9EF0F01F3DE7E01FF1FF0000000001
:1007800000000000000000001F80FF007FFFFFFF4F
:10079000FFFFFFFFFFFFE01C007F007FFFFFFFFE6A
:1007A000B46D888D18E000001F007FFFFFFFFE95ED
:1007B000AD7DB577E000000F007FFFFFFFFEA5AD28
:1007C0009D8D19E0000006007FFFFFFFFEB5ADED37
:1007D000B57EE00000000000018000000000000085
:1007E000000000038000000000000000000007C0BF
:1007F00000000000000000000007C0000000000032
:10080000000000000FC00000000000000000001FFA
:10081000E00000000000000000001FE000000000F9
:1008200000000000003FE0000000000000000000A9
:100830003FF00000000000000000007FF00000001A
:10084000000000001FF87FF0000000000000003FE3
:10085000FE7FF0000000000000003FFF7FF000007E
:1008600000000000001FFFFBE0000000000000008F
:100870000FFFF9FFC00000000000000FFFF9FFF8B4
:1008800000000000000007FFF1FFFF000000000073
:100890000003FC73FFFF80000000000001FE3FFF2B
:1008A000FF80000000000000FF1E0FFF000000009E
:1008B0000000007FFE1FFC000000000000003FFF62
:1008C000FFF8000000000000000FDFFFE000000064
:1008D000000000001F19FFC0000000000000003FE2
:1008E0003CFF00000000000000007E7CF8000000DB
:1008F00000000000007FFE7C0000000000000000FF
:10090000FFFFFC0000000000000000FFFFFE0000F1
:10091000000000000000FFFFFE00000000000000DB
:1009200001FFEFFE0000000000000001FFCFFE000D
:1009300000000000000003FF07FE000000000000B0
:100940000003FC07FE0000000000000003F003FEAF
:1009500000000000000000018000FE000000000018
:1009600000000000007E0000000000000000000009
:100970003E000000000000000000000C000000002D
:100980000000078000FC000003C000000007800199
:10099000FC000003C0000000078001FC000003C051
:1009A000000000078001E00000001E00000007803A
:1009B00001E00000001E007FE3F79FF9FDE7787B70
:1009C000DFC0FFF7FFBFFDFDFF787BDFC0FFF7FF54
:1009D000BFFDFDFF787BDFC0F0F787BC3DE1FF780E
:1009E0007BDE00F0F787BC3DE1F0787BDE0000F7AE
:1009F00087803DE1E0787BDE007FF7879FFDE1E0C7
:100A0000787BDE00FFF787BFFDE1E0787BDE00F05A
:100A1000F787BC3DE1E0787BDE00F0F787BC3DE185
:100A2000E0787BDE00F0F787BC3DE1E0787BDE001C
:100A3000FFF7FFBFFDE1E07FFBDFC0FFF7FFBFFD7A
:100A4000E1E07FFBDFC07CF3F39F3DE1E03E7BCF45
:100A5000C00000000000000000000000FFFFFFFFDA
:100A6000FFFFFFFFFFFFC0FFFFFFFFFD68DB111A65
:100A700031C0FFFFFFFFFD2B5AFB6AEFC0FFFFFFF6
:100A8000FFFD4B5B3B1A33C0FFFFFFFFFD6B5BDBE2
:100A90006AFDC05353443133303620616C6C6F6350
:100AA0006174696F6E206661696C656400006E1622
:100AB000451B11241FBECFEFD8E0DEBFCDBF23E022
:100AC000ACE6B1E001C01D92A232B207E1F711E03D
:100AD000A0E0B1E0ECE8FBE302C005900D92AC367B
:100AE000B107D9F715E0C8E5D5E004C02197FE01AC
:100AF0000E94B51BC735D107C9F70E9482170C9415
:100B0000B91D0C940000089508950895AF92BF9206
:100B1000CF92DF92EF92FF920F931F93CF93DF93C9
:100B20006C017B018B01040F151FEB015E01AE18F8
:100B3000BF08C017D10759F06991D601ED91FC911A
:100B40000190F081E02DC6010995892B79F7C50147
:100B5000DF91CF911F910F91FF90EF90DF90CF9099
:100B6000BF90AF900895FC01538D448D252F30E048
:100B7000842F90E0821B930B541710F0CF960895AA
:100B800001970895FC01918D828D981761F0A28DD7
:100B9000AE0FBF2FB11D5D968C91928D9F5F9F739D
:100BA000928F90E008958FEF9FEF0895FC01918D53
:100BB000828D981731F0828DE80FF11D858D90E0C0
:100BC00008958FEF9FEF0895FC01918D228D892F5D
:100BD00090E0805C9F4F821B91098F739927089545
:100BE00080E392E00E94E40521E0892B09F420E0F3
:100BF000822F089580E090E0892B29F00E94F00573
:100C000081110C9400000895FC01A48DA80FB92F48
:100C1000B11DA35ABF4F2C91848D90E001968F7324
:100C20009927848FA689B7892C93A089B1898C9143
:100C3000837080648C93938D848D981306C0028892
:100C4000F389E02D80818F7D80830895EF92FF925C
:100C50000F931F93CF93DF93EC0181E0888F9B8DDF
:100C60008C8D98131AC0E889F989808185FF15C099
:100C70009FB7F894EE89FF896083E889F9898081BC
:100C80008370806480839FBF81E090E0DF91CF918B
:100C90001F910F91FF90EF900895F62E0B8D10E0AD
:100CA0000F5F1F4F0F731127E02E8C8D8E110CC01C
:100CB0000FB607FCFACFE889F989808185FFF5CF67
:100CC000CE010E940406F1CFEB8DEC0FFD2FF11D3C
:100CD000E35AFF4FF0829FB7F8940B8FEA89FB89A4
:100CE00080818062CFCFCF93DF93EC01888D882302
:100CF000B9F0AA89BB89E889F9898C9185FD03C07F
:100D0000808186FD0DC00FB607FCF7CF8C9185FF63
:100D1000F2CF808185FFEDCFCE010E940406E9CF9E
:100D2000DF91CF910895833081F028F4813099F0DC
:100D30008230A9F008958730A9F08830C9F0843056
:100D4000B1F4809180008F7D03C0809180008F7707
:100D500080938000089584B58F7784BD089584B50D
:100D60008F7DFBCF8091B0008F778093B000089586
:100D70008091B0008F7DF9CFCF93DF93282F30E0A3
:100D8000F901E957FA4F8491F901EF53FA4FD491E1
:100D9000F901E152FA4FC491CC23A1F081110E94D4
:100DA0009306EC2FF0E0EE0FFF1FE358FA4FA591EA
:100DB000B491EC91ED2381E090E009F480E0DF91C3
:100DC000CF91089580E090E0FACF1F93CF93DF9307
:100DD000282F30E0F901E957FA4F8491F901EF53D8
:100DE000FA4FD491F901E152FA4FC491CC23A9F002
:100DF000162F81110E949306EC2FF0E0EE0FFF1FDB
:100E0000EB52FA4FA591B4918FB7F894EC91111170
:100E100008C0D095DE23DC938FBFDF91CF911F9167
:100E20000895DE2BF8CF10922B0210922A02109216
:100E30002D0210922C021092290281E08093280248
:100E40001092270261E082E10E94E50661E083E101
:100E50000E94E506E9EBF0E080818E7F808380814F
:100E60008D7F808388E48093B80085E48093BC0004
:100E700083E895E0909326028093250284E895E02C
:100E800090932402809323020895CF93DF9390E000
:100E9000FC01EF53FA4F249181529A4FFC01849147
:100EA0008823D1F090E0880F991FFC01E556FA4F96
:100EB000A591B491FC01EB52FA4FC591D491611107
:100EC0000EC09FB7F8948C91E22FE0958E238C93FF
:100ED0002881E223E8839FBFDF91CF9108958FB7E8
:100EE000F894EC91E22BEC938FBFF6CF3FB7F894D8
:100EF0008091D4019091D501A091D601B091D701F4
:100F000026B5A89B05C02F3F19F00196A11DB11D64
:100F10003FBFBA2FA92F982F8827BC01CD01620FA0
:100F2000711D811D911D42E0660F771F881F991F5B
:100F30004A95D1F708958F929F92AF92BF92CF9228
:100F4000DF92EF92FF924B015C010E9476076B01EA
:100F50007C010E9476076C197D098E099F09683E05
:100F6000734081059105A8F321E0821A9108A10838
:100F7000B10888EEC80E83E0D81EE11CF11C811474
:100F80009104A104B10429F7FF90EF90DF90CF9076
:100F9000BF90AF909F908F9008950895FC0163706B
:100FA000668B8481958126813781613039F0633089
:100FB00029F091878087338722870895318720879A
:100FC0009387828708952F923F924F925F926F92FC
:100FD0007F928F929F92AF92BF92CF92DF92EF92C9
:100FE000FF920F931F93CF93DF93CDB7DEB76A972E
:100FF0000FB6F894DEBF0FBECDBF9A8F898F7A836C
:1010000069834A01D22E18870F833701BC2CDC017B
:1010100059962D913C915A972115310509F015C12A
:1010200018968D919C911997681779070CF0D7C184
:101030001A968D919C91481759070CF0D0C14C2CF1
:10104000512CB6E0CB9E600D711D11247C876B87FF
:10105000161617060CF0C3C1EA2DF0E0FA87E987EF
:1010600093E0EE0FFF1F9A95E1F7F88BEF87CF0122
:10107000840F951F181619060CF0B1C1A98DBA8DF1
:1010800058968C91811104C0BFEABD1508F4D39421
:10109000A98DBA8DED91FC9111970284F385E02D15
:1010A000CD010995B5E0DB9EC0011124E981FA81EB
:1010B000FC83EB83312C212C9C0123583F4F388F2C
:1010C0002F8B4A2D50E05E8B4D8BEF89F88DE20D12
:1010D000F31D44919E828D82D12CC12C69817A812D
:1010E000620D731D7A8B698B842F90E09C8B8B8BA8
:1010F000E98DFA8DA081B18140FF82C0F1E0BF127D
:101100006FC0AF126DC01C96ED91FC912F81388598
:10111000A4014C0D5D1D69897A89898D9A8D099587
:10112000EB89FC89F595E7954E2F5FEFC51AD50A37
:101130006D817E818D899E89680F791F7E836D8385
:1011400098E0C916D10481F6AFEF2A1A3A0AEB816A
:10115000FC81E40DF51DFC83EB83F5E02F163104D3
:1011600009F0B3CF2F81388526153705B9F0A98D41
:10117000BA8DED91FC91B1E0BB1257C0AB1255C0D6
:1011800069817A816B5F7F4F0088F189E02D83014F
:1011900028E030E0A401898D9A8D0995A98DBA8D3A
:1011A000ED91FC9111970688F789E02DCD016A96A3
:1011B0000FB6F894DEBF0FBECDBFDF91CF911F9168
:1011C0000F91FF90EF90DF90CF90BF90AF909F90E6
:1011D0008F907F906F905F904F903F902F900994E9
:1011E0001E96ED91FC91EF80F88409851A85920195
:1011F0004D815E816B817C81898D9A8D099590CF1F
:101200002F8138852615370509F48ACF31E0B312CE
:1012100007C0A31205C01C96ED91FC91930178CFF5
:101220001E96ED91FC917301E0CF6B857C8564196E
:1012300075090684F785E02D73010F8518899201E1
:10124000A401898D9A8D0995A9CFF90134969491BD
:10125000329745915491D91AB7E0DB9E400D511D4C
:101260001124F901259134913C8B2B8BFA012590A7
:101270003490FA013296749031963491398B3296CB
:1012800064903196449041E04C1518F04A1508F0EE
:101290007FC0662D062C000C770B7C836B83842D1E
:1012A000042C000C990B9E838D83A98DBA8DED9132
:1012B000FC9111970284F385E02DCD010995512C05
:1012C000D12CC12CEA2DF0E0FA87E9872B2D30E0F4
:1012D0003C872B87A401440D511D47FC5A95588F1C
:1012E0004F8B69817A81660D711D67FC7A957E87C7
:1012F0006D877989C71608F051CF2C2D30E04D81CC
:101300005E81420F531FA985BA854A9FC0014B9F3A
:10131000900D5A9F900D1124FC01E80DF91DF88BDA
:10132000EF87852D612C4F89588D420F531F5E8B9F
:101330004D8B671408F050C044244394480E8770C6
:1013400041F4C1010196EB89FC89E20DF31DD490B3
:101350001C01D7FE19C0A98DBA8DED91FC91662DA7
:1013600070E0B1E0BB1219C0AB1217C02D853E85ED
:10137000620F731F0484F585E02D2F8138854D8918
:101380005E89898D9A8D0995DD0C6394842DD1CF6A
:101390001E821D821C821B8288CF4B815C81640F60
:1013A000751FAB85BC856A9FC0016B9F900D7A9FAE
:1013B000900D112469817A81680F791F0684F78561
:1013C000E02DEF80F88409851A859D014F855889A5
:1013D000898D9A8D0995D8CF570CC3948ACF6A9678
:1013E0000FB6F894DEBF0FBECDBFDF91CF911F9136
:1013F0000F91FF90EF90DF90CF90BF90AF909F90B4
:101400008F907F906F905F904F903F902F900895B6
:101410008F929F92AF92CF92EF92FF920F931F9372
:10142000CF93DF93EC01262F898D9A8D009709F0D9
:1014300051C06A30D1F41D861C868D8948E0849F96
:10144000900111248E859F85820F931F9F878E8721
:1014500081E090E0DF91CF911F910F91FF90EF908D
:10146000CF90AF909F908F9008956D3089F3CC8886
:10147000AD888F898823C1F08C859D8536E0C39E19
:10148000800D911D1124488559854817590764F42A
:101490004E855F851D861C8638E0A39EC001112401
:1014A000840F951F9F878E87EA88FB880889198992
:1014B0004E855F856C857D85CE010E94E3072C8972
:1014C0008C859D8546E0249F800D911D11249D876C
:1014D0008C87BECF6A3069F41D861C86FC01369667
:1014E000E4912D898E859F85E29F800D911D1124A9
:1014F000ADCF6D3009F4ACCFFC0134963491631755
:1015000008F4A6CF3196E491E61708F4A1CFFC01C8
:10151000329685909490462F431B342F47E0349F9A
:10152000800C911C1124F401329634913196E4918F
:101530003323A9F1EE2399F1CC88F4013596E49197
:10154000AD884F89442301F10E2E000CFF0BE30FF1
:10155000F11DCE9EA001CF9E500D11246C857D857E
:10156000460F571F68857985641775076CF44E859B
:101570005F851D861C86FC013696E491AE9E400D6B
:10158000511D11245F874E87EA88FB8808891989D5
:101590004E855F856C857D85CE010E94E307F40151
:1015A0003496E4912C898C859D85E29F800D911D58
:1015B00011248DCF6F927F928F929F92AF92BF92A4
:1015C000CF92DF92EF92FF920F931F93CF93DF930F
:1015D000EC016B015A0139014801E881F98102846B
:1015E000F385E02D0995E881F9810288F389E02DE2
:1015F00087019301A501B601CE010995A501480D0A
:10160000591D41505109E881F9810288F389E02D83
:101610009301B601CE010995E881F9810088F1892D
:10162000E02D9401A501B601CE010995C60CD71C89
:10163000B60161507109E881F9810088F189E02DD6
:101640009401A501CE010995E881F9810688F78901
:10165000E02DCE01DF91CF911F910F91FF90EF9080
:10166000DF90CF90BF90AF909F908F907F906F90C2
:1016700009946F927F928F929F92AF92BF92CF9276
:10168000DF92EF92FF920F931F93CF93DF935C0152
:10169000EB016A01490138018701DC01ED91FC9100
:1016A0006217730719F5641675062CF0962D872DB1
:1016B0003A01C92ED82E9601261937092F5F3F4FC0
:1016C000048CF58DE02DA301BE01C5010995DF91C4
:1016D000CF911F910F91FF90EF90DF90CF90BF902F
:1016E000AF909F908F907F906F900895461557050B
:1016F00091F42617370724F0892D4B01C22FD82FDC
:101700009E01281939092F5F3F4F068CF78DE02D78
:10171000A601B401DACF0284F385E02D0995D50145
:10172000ED91FC910488F589E02D83019401A601D7
:10173000BE01C5010995D501ED91FC910688F78997
:10174000E02DC501DF91CF911F910F91FF90EF9098
:10175000DF90CF90BF90AF909F908F907F906F90D1
:101760000994EF92FF920F931F93DC011A960D914B
:101770001C911B9718962D913C911997ED91FC9116
:1017800000A0F1A1E02D7B0150E040E070E060E0BE
:1017900009951F910F91FF90EF9008954F925F92DE
:1017A0006F927F928F929F92AF92BF92CF92DF9271
:1017B000EF92FF920F931F93CF93DF936C012B0156
:1017C0005A0139014801DC01ED91FC910284F38555
:1017D000E02D0995E201640C751CD601ED91FC9198
:1017E000C615D7055CF40088F189E02D87019401C6
:1017F000A501BE01C60109952196EFCF0688F7899C
:10180000E02DC601DF91CF911F910F91FF90EF90D6
:10181000DF90CF90BF90AF909F908F907F906F9010
:101820005F904F9009948F929F92AF92BF92CF9208
:10183000DF92EF92FF920F931F93CF93DF93EC0110
:101840005B014A016901E881F9810284F385E02D99
:10185000099595012C0D3D1D21503109E881F98133
:101860000488F589E02D78018401A401B501CE0139
:101870000995E881F9810688F789E02DCE01DF918D
:10188000CF911F910F91FF90EF90DF90CF90BF907D
:10189000AF909F908F9009948F929F92AF92BF923A
:1018A000CF92DF92EF92FF920F931F93CF93DF932C
:1018B000EC015B014A0169017801E881F981028448
:1018C000F385E02D0995C80CD91C8601015011093A
:1018D000E881F9810488F589E02D9501A401B5011D
:1018E000CE010995E881F9810688F789E02DCE01BE
:1018F000DF91CF911F910F91FF90EF90DF90CF90EC
:10190000BF90AF909F908F900994EF92FF920F93AA
:101910001F93DC01ED91FC9100A0F1A1E02D099550
:101920001F910F91FF90EF9008950F931F93DC018B
:10193000ED91FC91068CF78DE02D09951F910F918B
:1019400008950F931F93DC01ED91FC91048CF58DAC
:10195000E02D09951F910F910895DC01ED91FC9107
:101960000084F185E02D09943F924F925F926F922F
:101970007F928F929F92AF92BF92CF92DF92EF921F
:10198000FF920F931F93CF93DF935C017B014A017A
:101990006901390187E0680E711C93E075946794C2
:1019A0009A95E1F72B01400E511E10E000E0312C1A
:1019B000D0E0C0E0CE0187709927330C892B59F411
:1019C000FE0183E0F595E7958A95E1F7E00FF11FB9
:1019D000E80DF91D349037FE0AC021E030E0A70180
:1019E000B5016C0F7D1F89ED92E00E94AD0C219630
:1019F000CC16DD06F9F68FEFE81AF80A060D171D6A
:101A0000E414F504A9F6DF91CF911F910F91FF9097
:101A1000EF90DF90CF90BF90AF909F908F907F908E
:101A20006F905F904F903F9008952F923F924F920A
:101A30005F926F927F928F929F92AF92BF92CF925E
:101A4000DF92EF92FF920F931F93CF93DF9300D01B
:101A500000D000D0CDB7DEB73C016A013E832D83B4
:101A6000FC82EB825801A41AB50AB7FE03C0B194F8
:101A7000A194B1088D809E80861A970A97FE03C0B4
:101A80009194819491088A149B045CF0902F812F8B
:101A90000D811E819D838E839C2D8D2D6B01692F61
:101AA000782F0C151D055CF09D818E817E836D83E2
:101AB000692F782F902F812F8601C92ED82E1601DD
:101AC000201A310A2B012D813E81421A530A57FEFA
:101AD00003C0519441945108710137FE03C03FEF98
:101AE000E31AF30AF594E7948D819E818617970790
:101AF0005CF5A1E0B0E0BA83A983C016D1064CF131
:101B0000D301ED91FC910484F585E02D2B813C817E
:101B1000A8016D817E818A149B041CF04D815E8139
:101B2000B801C3010995E418F508F7FE0AC02D8134
:101B30003E8189819A81280F391F3E832D83E20CD3
:101B4000F31C0F5F1F4FD9CF2FEF3FEF3A8329834D
:101B5000D4CF26960FB6F894DEBF0FBECDBFDF916F
:101B6000CF911F910F91FF90EF90DF90CF90BF909A
:101B7000AF909F908F907F906F905F904F903F902D
:101B80002F900895EF92FF920F931F93CF93DF93BF
:101B9000EC01EC80FD806E157F050CF070C057FFE6
:101BA00004C0240F351F50E040E08E819F81FA0170
:101BB000E20FF31F8E179F071CF49C01241B350BAB
:101BC000121613060CF05BC0922F842F8695869513
:101BD00086958E9DD0018F9DB00D11246A0F7B1FBD
:101BE000AF8DB8A1A60FB71F477049F188E0841BDD
:101BF000482F682F70E0FB01EB58FF4FE491281746
:101C000008F063C0621B71092FEF30E002C0359508
:101C100027956A95E2F7E2230130110539F0B0F11A
:101C20000230110561F58C91E82702C08C91E82BF8
:101C3000EC93941720F12C813D81A20FB31FE92F63
:101C4000E41BE83078F00230110521F58E2F9C91CD
:101C500090959C932C813D81A20FB31F88508830B2
:101C6000B0F7E770EE2359F0F0E0E359FF4FE4914D
:101C700001301105F9F010F10230110519F1DF9171
:101C8000CF911F910F91FF90EF900895E0958C9167
:101C9000E823CECF81E00115110509F480E081959C
:101CA0009E2F8C932C813D81A20FB31F98509830AA
:101CB000C0F7D7CF8C91E82BEC93E1CFE0958C91D6
:101CC000E823FACF8C91E827F7CF0130110509F40A
:101CD000ADCFE0F20230110509F4A5CFAE0DBF1D66
:101CE000AECF0F931F93CF93DF9377FF04C0260FE0
:101CF000371F70E060E0DC011496CD91DC91FB01B0
:101D0000E20FF31FCE17DF071CF49E01261B370BD3
:101D1000121613064CF5FA0157FD3796A3E0F59518
:101D2000E795AA95E1F7EC9FD001ED9FB00DFC9FE0
:101D3000B00D11246A0F7B1FDC015F96ED91FC91C1
:101D4000E60FF71F4770552781E090E001C0880F2C
:101D50004A95EAF7482F0130110559F0A8F02E0FE7
:101D60003F1F02301105E1F0DF91CF911F910F91DC
:101D700008952E0F3F1FE217F307B1F38191DF01A2
:101D80001197842B8C93F7CF80952E0F3F1FE2176E
:101D9000F30751F39191DF01119798239C93F7CFAB
:101DA000E217F30709F38191DF01119784278C93E0
:101DB000F7CF0F931F93FA01DC0156964C9156977B
:101DC0004230E9F04330A1F1413061F514964D9174
:101DD0005C91DA01AE1BBF0BFD01E21BF30B77FD3B
:101DE0000BC0DC0116964D915C916417750724F4C5
:101DF000AB01BF010E94710E1F910F9108951496BF
:101E00004D915C91DA01A61BB70BBD0161507109C0
:101E1000DC0116964D915C91DA01AE1BBF0BFD0102
:101E2000E21BF30B77FDE8CFAF010E94C20DE4CFB8
:101E300016964D915C91DA01A61BB70BBD0161505E
:101E40007109CDCF0F931F93FA01DC0156964C9187
:101E500056974230A9F0433091F1413019F514966C
:101E60004D915C91DA01AE1BBF0BFD013197F7FD7F
:101E700004C0AB01BF010E94C20D1F910F910895D4
:101E800014964D915C91DA01A61BB70BBD01DC01E4
:101E900016964D915C91DA01AE1BBF0BFD01319797
:101EA000621B730BF7FDE9CFDC0116964D915C9137
:101EB000E417F50714F7AF010E94710EDECF1696F6
:101EC0004D915C91DA01A61BB70BBD01621B730B30
:101ED000CECFFC0177FD64C08085918568177907B6
:101EE0000CF05EC057FD5CC082859385481759078A
:101EF0000CF056C086898230B1F0833029F18130F0
:101F000041F484819581841B950BAB01BC01615028
:101F100071092130310509F108F443C0223031053F
:101F200009F463C0089584819581DC01A61BB70B79
:101F3000BD016150710986819781DC01A41BB50B3D
:101F4000AD0141505109E5CF86819781861B970BE2
:101F5000BA01AC0141505109DCCFCA0157FD0796C7
:101F6000A3E095958795AA95E1F7A481B5818A9F0D
:101F700090018B9F300D9A9F300D1124620F731FBB
:101F8000078CF0A1E02DE60FF71F4770552721E0E1
:101F900030E001C0220F4A95EAF78081822B8083CE
:101FA0000895CA0157FD079633E0959587953A95B0
:101FB000E1F7A481B5818A9F90018B9F300D9A9F94
:101FC000300D1124620F731F078CF0A1E02DE60F76
:101FD000F71F4770552781E090E001C0880F4A95B0
:101FE000EAF7809590818923DACFCA0157FD0796D9
:101FF00023E0959587952A95E1F7A481B5818A9F7D
:1020000090018B9F300D9A9F300D1124620F731F2A
:10201000078CF0A1E02DE60FF71F4770552721E050
:1020200030E001C0220F4A95EAF780818227B7CFBE
:1020300008958EBD00000DB407FEFDCF8EB5089546
:102040008CBD9DBD0895089585ED8093BC00809161
:10205000BC0084FDFCCF1092290208952091AC01B0
:10206000260F3327331F21323105ECF4209129024A
:10207000FC0190E080E0243069F082E00895A091B6
:10208000AC012191AC0144575E4FA40FB52FB11D97
:102090002C930196861798F38091AC01680F60939A
:1020A000AC0180E0089581E00895E0912B028091D9
:1020B0002A02E81730F4F0E0E350FE4F808190E010
:1020C00008958FEF9FEF089590912B0280912A023F
:1020D0002FEF3FEF981748F4E92FF0E0E350FE4F61
:1020E000208130E09F5F90932B02C9010895809179
:1020F0002A0290912B02891B990B0895CF92DF92AF
:10210000EF92FF920F931F93CF93DF937C01CB014C
:102110008A0120912F02222389F0EB016B01C40E6A
:10212000D51ECC15DD0569F06991D701ED91FC91C3
:102130000190F081E02DC7010995F3CF642F0E9433
:102140002E10C801DF91CF911F910F91FF90EF905A
:10215000DF90CF900895CF93DF931F92CDB7DEB776
:10216000698320912F022223F9F020912C02203242
:1021700058F021E030E0FC013383228390E080E0DE
:102180000F90DF91CF91089580912D02E82FF0E01C
:10219000E459FE4F998190838F5F80932D02809345
:1021A0002C0281E090E0ECCF61E0CE0101960E942C
:1021B0002E10F7CF20912C0281E0213208F044C08C
:1021C000809129028111FCCF80912E0292E09093A0
:1021D000290291E0909328029FEF9093FC011092C6
:1021E000FB012093FA01ACE6B1E0E9EDF1E090E00B
:1021F000291331C01092F9019091F901880F892BB0
:102200008093F90180912702813049F510922702CD
:102210008091F9018093BB008091BC0083FDF8CFD1
:1022200085EC8093BC00809129028230E1F380919B
:10223000FC018F3FB1F08091FC018032A1F08091D0
:10224000FC01803391F084E010922D0210922C0258
:1022500010922F0208953D9131939F5FC9CF85EE73
:10226000E0CF80E0F1CF82E0EFCF83E0EDCFFF92CF
:102270000F931F93CF93DF93F82ED92FC62F809102
:10228000F6029091F702009709F452C02091FA02E9
:1022900031E030932F0220932E0210922D021092E3
:1022A0002C02DC01ED91FC910190F081E02D60E0C9
:1022B00009950F2D1D2FD1E0FF24F394C15080917B
:1022C000F6029091F702CF3F61F1D032C8F00E9440
:1022D000DA108091F6029091F7022091FA02F092C2
:1022E0002F0220932E0210922D0210922C02DC015C
:1022F000ED91FC910190F081E02D60E00995D1E035
:102300008091F6029091F702F8016491DC01ED9161
:10231000FC910190F081E02D0995DF5F0F5F1F4F69
:10232000CDCFDF91CF911F910F91FF900C94DA10D8
:10233000E0910603F0910703908180910C03809552
:10234000892380830F2D1D2FC15008F438C0F80158
:1023500084912091F4023091F502232B29F00E9400
:1023600019100F5F1F4FF0CF28E030E040E8E091F8
:102370000203F091030390910A03582F5423D9F0DC
:102380005081952B9083E0910403F0910503908197
:1023900050910B03952B9083E0910403F09105037A
:1023A000508190910B0390959523908346952150F1
:1023B0003109E9F6D6CF508190959523E3CFDF918F
:1023C000CF911F910F91FF9008951F93CF93DF93AB
:1023D000EC018D8D9E8D009721F1162F29A131E002
:1023E00030932F0220932E0210922D0210922C0275
:1023F000DC01ED91FC910190F081E02D60E0099508
:102400008D8D9E8DDC01ED91FC910190F081E02D90
:10241000612F09958D8D9E8DDF91CF911F910C9429
:10242000DA10ADA5BEA59C918BA9809589238C93CC
:102430008B8D9C8D892B31F0862FDF91CF911F9151
:102440000C94191028E030E080E8A9A5BAA599A954
:10245000462F4823C1F04C91942B9C93ABA5BCA56F
:102460009C914AA9942B9C93ABA5BCA54C919AA98D
:10247000909594239C9386952150310931F7DF91F3
:10248000CF911F9108954C9190959423E6CF1F937F
:10249000CF93DF93EC01162F8D8D9E8D892BB1F19B
:1024A0002FA938AD49AD5AAD60E074E284EF90E0F9
:1024B0000E94931B205131094109510956954795B6
:1024C000379527952093B80066EA111167EACE0187
:1024D0000E94E5118D8D9E8D892B41F12BAD3CAD78
:1024E0004DAD5EAD60E074E284EF90E00E94931B1E
:1024F000205131094109510956954795379527953E
:102500002093B800DF91CF911F9108958B8D9C8D02
:10251000892B21F08DA99EA90E942010EFA5F8A972
:1025200090818CA9809589238083CECFEFA5F8A9CF
:1025300080819CA9892B8083E5CF90E080E008957D
:10254000FB0101900020E9F73197AF01461B570BC3
:10255000DC01ED91FC910280F381E02D09948F92D2
:102560009F92AF92BF920F931F93CF93DF93CDB7FC
:10257000DEB7A1970FB6F894DEBF0FBECDBF19A28C
:10258000423008F44AE08E010F5D1F4F842E912CDB
:10259000B12CA12CA50194010E94931BE62FB90137
:1025A000CA01EA3004F5E05DD801EE938D01232BDA
:1025B000242B252B79F790E080E0109729F0BD01BE
:1025C00080E392E00E94A012A1960FB6F894DEBFBD
:1025D0000FBECDBFDF91CF911F910F91BF90AF90F4
:1025E0009F908F900895E95CDFCFCF92DF92EF92BA
:1025F000FF92CF93DF936B017C016DE280E392E069
:102600000E942606EC0166277727CB016C197D090D
:102610008E099F094AE00E94AF128C0F9D1FDF9127
:10262000CF91FF90EF90DF90CF9008952091DF023F
:102630003091E002C901079697FD079623E0959532
:1026400087952A95E1F72091DD023091DE02829F85
:10265000A001839F500D929F500D112470E060E007
:102660008091F8029091F9020C94AB1DEF92FF92C9
:102670000F931F93CF93DF9360911F0270912002FD
:10268000072E000C880B990B97FFD7C00E94F512FC
:1026900066E571E080E392E00E94A0120E941613AA
:1026A00082E08093ED028093EE0281E090E09093CF
:1026B000EC028093EB029093EA028093E90230915E
:1026C0001F02209120023093E5022093E602832F1F
:1026D000922F97FD0196959587959093E8028093A8
:1026E000E70240911C0350911D0360911803709103
:1026F000190389ED92E00E94860566E571E089ED97
:1027000092E00E94A0128091F6029091F702892B2C
:1027100009F497C0209110033091110340911203E6
:102720005091130360E074E284EF90E00E94931BE9
:1027300020513109410951095695479537952795FB
:102740002093B80065E088E690E00E943711609120
:10275000DD02615089ED92E00E94E5112091DF02D7
:102760003091E002C901079697FD079623E0959501
:1027700087952A95E1F72091DD023091DE02829F54
:102780008001839F100D929F100D1124C091F802BB
:10279000D091F9028091F6029091F7020C0F1D1F63
:1027A000009709F48DC02091FA0231E030932F0296
:1027B00020932E0210922D0210922C02DC01ED913A
:1027C000FC910190F081E02D60E40995FF24F394E1
:1027D000EE24E3948091F6029091F7020C171D0706
:1027E00009F446C0BFE1BF15D0F40E94DA10809111
:1027F000F6029091F7022091FA02E0922F022093C4
:102800002E0210922D0210922C02DC01ED91FC910F
:102810000190F081E02D60E40995FF24F39480910C
:10282000F6029091F7026991DC01ED91FC91019023
:10283000F081E02D0995F394CDCF4AE00E94AF12CC
:1028400027CF8091F4029091F502892B31F080918D
:102850000E0390910F030E942010E0910803F09165
:102860000903908180910D038095892380836ACF2D
:102870000E94DA108091F6029091F702892B09F4F8
:1028800060C02091140330911503409116035091BC
:10289000170360E074E284EF90E00E94931B2051E4
:1028A0003109410951095695479537952795209348
:1028B000B800DF91CF911F910F91FF90EF90089595
:1028C000E0910603F0910703808190910C03892B1E
:1028D00080830C171D0771F289912091F4023091C9
:1028E000F502232B19F00E941910F3CF28E030E0F5
:1028F00040E8E0910203F091030390910A03582FFE
:102900005423D9F05081952B9083E0910403F091EA
:102910000503908150910B03952B9083E091040364
:10292000F0910503508190910B039095952390832E
:10293000469521503109E9F6CCCF508190959523E9
:10294000E3CFE0910803F0910903808190910D039A
:10295000892B8083AECF0E949D1D1F920F920FB6D0
:102960000F9211242F933F934F935F936F937F9315
:102970008F939F93AF93BF93EF93FF9380E392E086
:102980000E940406FF91EF91BF91AF919F918F91AB
:102990007F916F915F914F913F912F910F900FBE5B
:1029A0000F901F9018951F920F920FB60F9211243F
:1029B0002F938F939F93EF93FF93E0914002F091B9
:1029C00041028081E0914602F091470282FD1BC0E6
:1029D0009081809149028F5F8F7320914A02821704
:1029E00041F0E0914902F0E0E05DFD4F958F80936A
:1029F0004902FF91EF919F918F912F910F900FBE00
:102A00000F901F9018958081F4CF1F920F920FB6F0
:102A10000F9211242F933F938F939F93AF93BF9364
:102A20008091D0019091D101A091D201B091D301B8
:102A30003091CF0123E0230F2D3758F50196A11DCA
:102A4000B11D2093CF018093D0019093D101A09329
:102A5000D201B093D3018091D4019091D501A0917E
:102A6000D601B091D7010196A11DB11D8093D4016B
:102A70009093D501A093D601B093D701BF91AF91A8
:102A80009F918F913F912F910F900FBE0F901F90AC
:102A9000189526E8230F0296A11DB11DD2CF1F92D3
:102AA0000F920FB60F9211242F933F934F935F9382
:102AB0006F937F938F939F93AF93BF93EF93FF9306
:102AC0008091B900887F803609F44AC0F0F58832D9
:102AD00009F4A7C018F5803109F49BC0B8F4882325
:102AE00009F4F9C0883009F494C0FF91EF91BF91C7
:102AF000AF919F918F917F916F915F914F913F9196
:102B00002F910F900FBE0F901F901895883109F4E8
:102B100088C0803251F78093FC0114C0803409F4DE
:102B20009DC040F48033B9F38833F9F68093FC01FB
:102B300085ECB0C0803509F485C0883509F496C0AD
:102B4000883499F60E942410D0CF883909F48CC0BB
:102B500038F5883729F050F4883611F0803729F697
:102B600083E0809329021092CE0157C0883809F47F
:102B70007BC0803919F0803809F0B7CF8091CE0141
:102B8000803208F071C0E091CE0181E08E0F809319
:102B9000CE018091BB00F0E0E255FE4F80833DC046
:102BA000803B39F0E0F4803A09F479C0883A09F0C2
:102BB0009CCF84E0809329021092AD011092AC0169
:102BC000E0912502F091260209958091AC018111D6
:102BD0000FC081E08093AC0110928C0109C0803C51
:102BE00009F4A6CF883C09F4A3CF883B09F07DCF38
:102BF000E091AD0181E08E0F8093AD01F0E0E457EC
:102C0000FE4F80818093BB009091AD018091AC011B
:102C100029C08091F9018093BB0085EC8093BC00B2
:102C200064CF9091FB018091FA01981758F5E091DB
:102C3000FB0181E08E0F8093FB01F0E0E752FE4F35
:102C40008081E9CFE091FB0181E08E0F8093FB0151
:102C50008091BB00F0E0E752FE4F80839091FB0132
:102C60008091FA019817C8F285E8D8CFE091FB016E
:102C700081E08E0F8093FB018091BB00F0E0E75272
:102C8000FE4F80838091280281115CCF81E0809388
:102C9000270284EA8093BC001092290226CF85EC9B
:102CA0008093BC00109229028091CE01803230F4D2
:102CB000E091CE01F0E0E255FE4F10826091CE012E
:102CC00070E0E0912302F09124028EEA91E00995F0
:102CD0001092CE010ACF1092FC0134CF1092330231
:102CE0001092320288EE93E0A0E0B0E080933402CC
:102CF00090933502A0933602B09337022AE031E078
:102D0000309331022093300225EC30E030933D02C5
:102D100020933C0224EC30E030933F0220933E02AB
:102D200020EC30E0309341022093400221EC30E06F
:102D3000309343022093420222EC30E0309345026C
:102D40002093440226EC30E0309347022093460261
:102D50001092490210924A0210924B0210924C02B9
:102D60001092D0021092CF028093D1029093D2029F
:102D7000A093D302B093D4028CE191E09093CE0261
:102D80008093CD02109219031092180310921B0326
:102D900010921A0310921D0310921C0364E070E05D
:102DA00090E080E00E94E01C009709F190931903E5
:102DB0008093180323E030E030931B0320931A0321
:102DC00020911C0330911D03232B11F4FC01108270
:102DD00083E090E090931D0380931C0369E571E00C
:102DE00080911803909119030E94B21D14C0809124
:102DF000180390911903009711F00E94571C10922C
:102E000019031092180310921D0310921C031092C4
:102E10001B0310921A031092DC021092DB0220E8CE
:102E200030E03093DE022093DD0280E490E0909366
:102E3000E0028093DF023093E2022093E10290935C
:102E4000E4028093E3021092EF021092E6021092E5
:102E5000E5021092E8021092E70281E08093EE0210
:102E60008093ED022FEF3FEF3093EC022093EB02C3
:102E70003093EA022093E9028093F0021092F1026B
:102E80001092F3021092F2028EE291E09093DA0235
:102E90008093D9021092F5021092F4028DEC92E028
:102EA0009093F7028093F6021092F9021092F802C2
:102EB0008FEF8093FD028093FE028093FF02809348
:102EC000000384E08093010380E580930E03109259
:102ED0000F0380E89AE1A6E0B0E08093100390939E
:102EE0001103A0931203B093130380EA96E8A1E0C4
:102EF000B0E08093140390931503A0931603B0934E
:102F000017030895789484B5826084BD84B5816088
:102F100084BD85B5826085BD85B5816085BD8091A4
:102F20006E00816080936E0010928100809181001C
:102F30008260809381008091810081608093810014
:102F4000809180008160809380008091B1008460D6
:102F50008093B1008091B00081608093B000809137
:102F60007A00846080937A0080917A0082608093F6
:102F70007A0080917A00816080937A0080917A0053
:102F8000806880937A001092C1000E941307E0913C
:102F90004002F091410282E08083E0913C02F09196
:102FA0003D021082E0913E02F0913F028FEC80835F
:102FB00010924802E0914402F091450286E080833D
:102FC000E0914202F0914302808180618083E09130
:102FD0004202F0914302808188608083E091420246
:102FE000F0914302808180688083E0914202F091F9
:102FF000430280818F7D808360E082E00E944507EC
:1030000060E085E00E94450760E083E00E9445079C
:1030100082E00E94BC0690931E0280931D02809164
:10302000F8029091F902892B11F10E941613209158
:10303000DF023091E0028091DD029091DE022132C8
:1030400031050CF04AC0B9016052710977FF02C026
:103050006F5F7F4F759567958357910997FD01962F
:1030600000E210E023E730E043EF55E049C0209153
:10307000DF023091E002C901079697FD0796B3E0A1
:1030800095958795BA95E1F72091DD023091DE02A2
:10309000AC01429FC001439F900D529F900D11249F
:1030A0000E94BB1B9093F9028093F802892B09F0D0
:1030B000BCCFC3E9DAE0FE016491662339F080E316
:1030C00092E00E9426062196892BA9F766E571E019
:1030D00080E392E00E94A012FFCFB9016054710911
:1030E00077FF02C06F5F7F4F759567958255910995
:1030F00097FD019600E410E022E530E043ED57E053
:10310000959587950E94B40C82E08093FB02809194
:10311000F6029091F702892B09F485C18CE3809324
:10312000FA020E9413078091010387FD1EC061E02F
:103130000E94450761E0809101030E94E50661E07D
:1031400070E080E090E00E949B0760E080910103C6
:103150000E94E5066AE070E080E090E00E949B0734
:1031600061E0809101030E94E5068091F602909152
:10317000F702892B09F416C2209110033091110334
:10318000409112035091130360E074E284EF90E0E9
:103190000E94931B205131094109510956954795C9
:1031A000379527952093B80064E08DEB95E00E9459
:1031B00037116091DF02615089ED92E00E94E511C4
:1031C00064E089EB95E00E9437118091FB0260E199
:1031D000813009F064E189ED92E00E94E51164E03C
:1031E00085EB95E00E9437118091DD029091DE021F
:1031F0008038910509F001C28091DF029091E002D0
:103200008032910509F0E5C164E081EB95E00E9410
:10321000371169ED89ED92E00E94E5118091FB0282
:1032200062E2813009F061EF89ED92E00E94E511E0
:1032300066E085EA95E00E9437118091F602909150
:10324000F702892B09F4F0C1209114033091150382
:10325000409116035091170360E074E284EF90E010
:103260000E94931B205131094109510956954795F8
:10327000379527952093B800C1E0D8E6BB24BA94CF
:1032800096E0A92E25EE922E35EC832E00E010E07C
:10329000C0932F02D0932E0210922D0210922C0276
:1032A00060E08DEC92E00E94AB108DEC92E00E9409
:1032B000DA10809129028111FCCFC0932902C093BA
:1032C0002802B092FC011092FB01A092FA01C09377
:1032D000F9018091F901806D8093F90180912702B5
:1032E000813009F0ABC1109227028091F9018093DF
:1032F000BB008091BC0083FDF8CF8092BC00809120
:1033000029028130E1F38091FB0197E0873010F4CE
:103310009091FB01A9EDB1E0EDEFF1E080E08913C0
:1033200090C110922B0280932A028DEC92E00E94B1
:1033300064108DEC92E00E9464108DEC92E00E948B
:1033400064108DEC92E00E9464108DEC92E00E947B
:1033500064108DEC92E00E9464106C018DEC92E0A0
:103360000E94641082E00E94BC067C0190932202BD
:103370008093210285E00E94BC06892B09F069C177
:103380001092200210921F026DE571E080E392E03E
:103390000E94A01266E571E080E392E00E94A01214
:1033A00060911F0270912002072E000C880B990B70
:1033B00097FF4BC10E94F51266E571E080E392E051
:1033C0000E94A012B60184E0759567958A95E1F791
:1033D0006F707727862F880F880F681B660FC60EC1
:1033E0006C2D70E090E080E04AE00E94AF1266E54C
:1033F00071E080E392E00E94A0120E943613809157
:1034000021029091220290931E0280931D020115C9
:10341000110509F43DCF0E94F005882309F438CF47
:103420000E94000035CF61E08091FF020E944507B5
:1034300061E0809100030E9445078091FF02082E01
:10344000000C990BFC01E152FA4FE491F0E0EE0F11
:10345000FF1FEB52FA4F25913491309307032093CD
:103460000603FC01EF53FA4FE491E0930C038091C3
:103470000003082E000C990BFC01E152FA4FE49175
:10348000F0E0EE0FFF1FEB52FA4FA591B491B0930D
:103490000903A0930803FC01EF53FA4FE491E09372
:1034A0000D038C91E82BEC938091F4029091F5023E
:1034B000892B09F434C0CFB7F8948091D8018111D9
:1034C00027C0E9EEF5E08491EBECF5E09491E82F6C
:1034D000F0E0EE0FFF1FE556FA4FA591B491EC9185
:1034E000E92321F461E08AE00E94E50661E08AE0D8
:1034F0000E9445078CB580618CBD8CB580648CBD05
:1035000061E08DE00E94450761E08BE00E94450785
:103510008091D8018F5F8093D801CFBF04CE61E046
:103520008091FD020E94450761E08091FE020E94A9
:1035300045078091FD02082E000C990BFC01E15219
:10354000FA4FE491F0E0EE0FFF1FEB52FA4F259196
:1035500034913093030320930203FC01EF53FA4F9D
:10356000E491E0930A038091FE02082E000C990B6F
:10357000FC01E152FA4FE491F0E0EE0FFF1FEB5235
:10358000FA4FA591B491B0930503A0930403FC01F5
:10359000EF53FA4FE491E0930B038C91E095E8230D
:1035A000EC93C1CD8091F4029091F502892B31F01A
:1035B00080910E0390910F030E942010E091080368
:1035C000F0910903908180910D0380958923808378
:1035D000EBCD8034910509F01CCE63E08EEA95E0D6
:1035E0000E9437118091FB026FE9813009F06FEC86
:1035F00089ED92E00E94E5110CCE8036910509F02C
:1036000008CE8091DF029091E002409709F001CE50
:1036100063E08BEA95E00E9437118091FB0260E144
:10362000813031F36FEAE4CFE0910803F0910903B0
:10363000808190910D03892B80831ECE9092BC00D7
:103640005ECE2D9121938F5F6ACE4AE00E94AF1229
:10365000B3CE80911D0290911E02E816F90609F47E
:10366000CECE83E00E94BC0620911F023091200242
:10367000E816F90639F02F5F3F4F30932002209370
:103680001F02BBCE21503109F8CF8EE291E090931A
:10369000DA028093D9028091F8029091F9020097A2
:1036A00011F00E94571C8091180390911903009704
:1036B00011F00C94571C08952F923F924F925F92F5
:1036C0006F927F928F929F92AF92BF92CF92DF9232
:1036D000EF92FF920F931F93CF93DF93CDB7DEB797
:1036E000CA1BDB0B0FB6F894DEBF0FBECDBF09942B
:1036F0002A88398848885F846E847D848C849B8482
:10370000AA84B984C884DF80EE80FD800C811B818F
:10371000AA81B981CE0FD11D0FB6F894DEBF0FBEBE
:10372000CDBFED010895A1E21A2EAA1BBB1BFD011E
:103730000DC0AA1FBB1FEE1FFF1FA217B307E40790
:10374000F50720F0A21BB30BE40BF50B661F771FE8
:10375000881F991F1A9469F76095709580959095C8
:103760009B01AC01BD01CF010895EE0FFF1F059035
:10377000F491E02D09940F931F93CF93DF93823040
:10378000910510F482E090E0E0912003F091210394
:1037900030E020E0B0E0A0E0309799F42115310549
:1037A00009F44AC0281B390B24303105D8F58A8129
:1037B0009B816115710589F1FB0193838283FE0171
:1037C00011C0408151810281138148175907E0F0EF
:1037D0004817590799F4109761F012960C931297B5
:1037E00013961C933296CF01DF91CF911F910F91C9
:1037F00008950093200310932103F4CF2115310580
:1038000051F04217530738F0A901DB019A01BD01BD
:10381000DF01F801C1CFEF01F9CF9093210380932D
:103820002003CDCFFE01E20FF31F8193919322502D
:10383000310939832883D7CF20911E0330911F038C
:10384000232B41F4209102013091030130931F0397
:1038500020931E03209100013091010121153105B3
:1038600041F42DB73EB74091040150910501241B4E
:10387000350BE0911E03F0911F03E217F307A0F44C
:103880002E1B3F0B2817390778F0AC014E5F5F4FB6
:103890002417350748F04E0F5F1F50931F034093C6
:1038A0001E03819391939FCFF0E0E0E09CCFCF93F4
:1038B000DF930097E9F0FC01329713821282A09106
:1038C0002003B0912103ED0130E020E01097A1F436
:1038D00020813181820F931F20911E0330911F039D
:1038E0002817390709F061C0F0931F03E0931E0306
:1038F000DF91CF910895EA01CE17DF07E8F54A81FD
:103900005B819E0141155105B1F7E901FB83EA8313
:1039100049915991C40FD51FEC17FD0761F48081BF
:1039200091810296840F951FE90199838883828192
:1039300093819B838A83F0E0E0E012968D919C91C5
:1039400013970097B9F52D913C911197CD010296EF
:10395000820F931F20911E0330911F0328173907F0
:1039600039F6309751F51092210310922003B0934D
:103970001F03A0931E03BCCFD383C2834081518118
:10398000840F951FC817D90761F44E5F5F4F888178
:103990009981480F591F518340838A819B8193836A
:1039A00082832115310509F0B0CFF0932103E09314
:1039B00020039ECFFD01DC01C0CF13821282D7CF3E
:1039C000B0E0A0E0E6EEFCE10C945E1B8C010097F9
:1039D00051F4CB010E94BB1B8C01C801CDB7DEB7EF
:1039E000E0E10C947A1BFC01E60FF71F9C012250CA
:1039F0003109E217F30708F49DC0D901CD91DC919C
:103A00001197C617D70798F0C530D10530F3CE010E
:103A100004978617970708F3C61BD70B2297C19305
:103A2000D1936D937C93CF010E94571CD6CF5B013D
:103A3000AC1ABD0A4C018C0E9D1EA0912003B091C2
:103A40002103512C412CF12CE12C109731F5809160
:103A50001E0390911F038815990509F05CC0461656
:103A6000570608F058C0809100019091010100971D
:103A700041F48DB79EB74091040150910501841B1C
:103A8000950BE817F90708F055C0F0931F03E09372
:103A90001E03F90171836083A0CF8D919C911197D2
:103AA00012966C90129713967C901397A815B905EF
:103AB00059F56C0142E0C40ED11CCA14DB0420F19C
:103AC000AC014A195B09DA011296159780F06282FF
:103AD000738251834083D9016D937C93E114F10487
:103AE00071F0D7011396FC93EE93129776CF22963E
:103AF0008C0F9D1FF90191838083F301EFCFF09329
:103B00002103E093200369CF4816590608F42C01DD
:103B10007D01D3019ACFCB010E94BB1B7C01009792
:103B200049F0AE01B8010E94A21DC8010E94571CB5
:103B3000870153CF10E000E050CF81E090E0F8948F
:103B40000C94B91DFB01DC0102C001900D924150A3
:103B50005040D8F70895DC0101C06D9341505040AA
:103B6000E0F70895FB01DC0101900D920020E1F7E0
:103B7000089515E0C8E5D5E004C0FE010E94B51B1C
:0C3B80002196C935D107C9F7F894FFCF92
:103B8C000000220380000000000026068605B30515
:103B9C007306E405C205D60500000000AB107E10CC
:103BAC009D12850577106410551000000000080A5E
:103BBC0086059D122310690F8505AD0C850CA10C93
:103BCC00950C150D8505CE074712D90E220FCE0B7D
:103BDC00B10B390BDA0A0D0A004D264300427574FD
:0C3BEC006F6E6120626173696C64690097
:00000001FF
