:100000000C9462000C948A000C948A000C948A0070
:100010000C948A000C948A000C948A000C948A0038
:100020000C948A000C948A000C948A000C948A0028
:100030000C948A000C948A000C948A000C948A0018
:100040000C947D020C948A000C94ED020C94C7026F
:100050000C948A000C948A000C948A000C948A00F8
:100060000C948A000C948A000000000023002600F3
:10007000290000000008000201000003040700003E
:1000800000000000000000000000250028002B00F8
:1000900000000000240027002A00040404040404D3
:1000A0000404020202020202030303030303010227
:1000B00004081020408001020408102001020408F6
:1000C0001020170411241FBECFEFD8E0DEBFCDBF34
:1000D00011E0A0E0B1E0ECEDF8E002C005900D9277
:1000E000AE31B107D9F721E0AEE1B1E001C01D9218
:1000F000AA3CB207E1F710E0C2E6D0E004C02197C5
:10010000FE010E946604C136D107C9F70E941F0391
:100110000C946C040C940000CF93DF9390E0FC01EE
:10012000E255FF4F249186569F4FFC01849188230E
:10013000C1F090E0880F991FFC01E057FF4FC59177
:10014000D491FC01EA57FF4FA591B4919FB7F89461
:100150008881E22FE0958E2388838C91E823EC93AD
:100160009FBFDF91CF910895AF92BF92CF92DF9260
:10017000EF92FF920F931F93CF93DF936C017B015C
:100180008B01040F151FEB015E01AE18BF08C017ED
:10019000D10759F06991D601ED91FC910190F08160
:1001A000E02DC6010995892B79F7C501DF91CF9123
:1001B0001F910F91FF90EF90DF90CF90BF90AF9085
:1001C0000895FC01538D448D252F30E0842F90E05D
:1001D000821B930B541710F0CF9608950197089542
:1001E000FC01918D828D981761F0A28DAE0FBF2F0B
:1001F000B11D5D968C91928D9F5F9F73928F90E061
:1002000008958FEF9FEF0895FC01918D828D9817CF
:1002100031F0828DE80FF11D858D90E008958FEF0C
:100220009FEF0895FC01918D228D892F90E0805CD5
:100230009F4F821B91098F73992708958DE291E05A
:100240000E94120121E0892B09F420E0822F0895F9
:1002500080E090E0892B29F00E941E0181110C940E
:1002600000000895FC01A48DA80FB92FB11DA35A59
:10027000BF4F2C91848D90E001968F739927848FC6
:10028000A689B7892C93A089B1898C9183708064E9
:100290008C93938D848D981306C00288F389E02D8A
:1002A00080818F7D80830895EF92FF920F931F933B
:1002B000CF93DF93EC0181E0888F9B8D8C8D981319
:1002C0001AC0E889F989808185FF15C09FB7F89425
:1002D000EE89FF896083E889F98980818370806471
:1002E00080839FBF81E090E0DF91CF911F910F91BC
:1002F000FF90EF900895F62E0B8D10E00F5F1F4FCB
:100300000F731127E02E8C8D8E110CC00FB607FCD9
:10031000FACFE889F989808185FFF5CFCE010E9467
:100320003201F1CFEB8DEC0FFD2FF11DE35AFF4FA2
:10033000F0829FB7F8940B8FEA89FB8980818062F5
:10034000CFCFCF93DF93EC01888D8823B9F0AA89B2
:10035000BB89E889F9898C9185FD03C0808186FD80
:100360000DC00FB607FCF7CF8C9185FFF2CF8081CF
:1003700085FFEDCFCE010E943201E9CFDF91CF9111
:10038000089590E0FC01EE58FF4F2491FC01E255E6
:10039000FF4F3491FC01E656FF4FE491EE23C1F18B
:1003A000222339F02330E9F090F4213001F122309A
:1003B00011F1F0E0EE0FFF1FE859FF4FA591B49146
:1003C000EC91E32381E090E029F580E00895273067
:1003D000A9F02830C9F0243061F7809180008F7D2A
:1003E00003C0809180008F7780938000E2CF84B536
:1003F0008F7784BDDECF84B58F7DFBCF8091B00039
:100400008F778093B000D5CF8091B0008F7DF9CFEA
:1004100080E090E00895FC0101900020E9F7319719
:10042000AF01481B590BBC018DE291E00C94B40064
:100430008F929F92AF92BF920F931F93CF93DF93B0
:10044000CDB7DEB7A1970FB6F894DEBF0FBECDBF14
:1004500019A2423008F44AE08E010F5D1F4F842E2E
:10046000912CB12CA12CA50194010E944404E62FEB
:10047000B901CA01EA30F4F4E05DD801EE938D01D0
:10048000232B242B252B79F790E080E0109719F08F
:10049000CD010E940B02A1960FB6F894DEBF0FBEED
:1004A000CDBFDF91CF911F910F91BF90AF909F90E3
:1004B0008F900895E95CE1CFCF92DF92EF92FF92A7
:1004C000CF93DF936B017C016DE28DE291E00E949E
:1004D0005401EC0166277727CB016C197D098E0941
:1004E0009F094AE00E9418028C0F9D1FDF91CF9157
:1004F000FF90EF90DF90CF9008951F920F920FB66C
:100500000F9211242F933F938F939F93AF93BF9399
:100510008091290190912A01A0912B01B0912C0189
:100520003091280123E0230F2D3758F50196A11DA6
:10053000B11D209328018093290190932A01A09353
:100540002B01B0932C018091240190912501A09161
:100550002601B09127010196A11DB11D80932401B0
:1005600090932501A0932601B0932701BF91AF91ED
:100570009F918F913F912F910F900FBE0F901F90E1
:10058000189526E8230F0296A11DB11DD2CF1F9208
:100590000F920FB60F9211242F933F934F935F93B7
:1005A0006F937F938F939F93AF93BF93EF93FF933B
:1005B0008DE291E00E943201FF91EF91BF91AF91E6
:1005C0009F918F917F916F915F914F913F912F916B
:1005D0000F900FBE0F901F9018951F920F920FB69D
:1005E0000F9211242F938F939F93EF93FF93E0919A
:1005F0003D01F0913E018081E0914301F091440181
:1006000082FD1BC09081809146018F5F8F73209186
:100610004701821741F0E0914601F0E0E35DFE4FB3
:10062000958F80934601FF91EF919F918F912F912C
:100630000F900FBE0F901F9018958081F4CF789483
:1006400084B5826084BD84B5816084BD85B58260D7
:1006500085BD85B5816085BD80916E008160809388
:100660006E001092810080918100826080938100F1
:100670008091810081608093810080918000816001
:10068000809380008091B10084608093B10080915C
:10069000B00081608093B00080917A008460809384
:1006A0007A0080917A00826080937A0080917A004B
:1006B000816080937A0080917A00806880937A00CC
:1006C0001092C10082E00E948C0083E00E948C00A6
:1006D00084E00E948C00E0913D01F0913E0182E0B7
:1006E0008083E0913901F0913A011082E0913B0161
:1006F000F0913C018FEC808310924501E091410123
:10070000F091420186E08083E0913F01F091400149
:10071000808180618083E0913F01F0914001808180
:1007200088608083E0913F01F09140018081806882
:100730008083E0913F01F091400180818F7D808333
:1007400082E00E94C10190931F0180931E01C0E0CE
:10075000D0E084E00E94C101892BC1F410922301F2
:100760001092220182E191E00E940B02609122012D
:1007700070912301072E000C880B990B97FF4CC03A
:100780000E945C028AE191E00E940B0282E00E94DA
:10079000C1018C01909321018093200180911E0161
:1007A00090911F010817190721F183E00E94C101F0
:1007B00020912201309123010817190789F12F5F39
:1007C0003F4F309323012093220182E191E00E9468
:1007D0000B026091220170912301072E000C880BFF
:1007E000990B97FF20C00E945C028AE191E00E9471
:1007F0000B02809120019091210190931F01809321
:100800001E01209709F4A5CF0E941E01882309F438
:10081000A0CF0E9400009DCF4AE00E941802B2CFF4
:1008200021503109CECF4AE00E941802DECFEDE21E
:10083000F1E01382128288EE93E0A0E0B0E08483BE
:100840009583A683B78384E091E09183808385ECD0
:1008500090E09587848784EC90E09787868780EC8A
:1008600090E0918B808B81EC90E0938B828B82EC7B
:1008700090E0958B848B86EC90E0978B868B118E25
:10088000128E138E148E0895A1E21A2EAA1BBB1B82
:10089000FD010DC0AA1FBB1FEE1FFF1FA217B3074C
:1008A000E407F50720F0A21BB30BE40BF50B661F62
:1008B000771F881F991F1A9469F760957095809526
:1008C00090959B01AC01BD01CF010895EE0FFF1F74
:0C08D0000590F491E02D0994F894FFCFFE
:1008DC00000000005401B400E100A1011201F0007D
:0E08EC00040153617961633A20000D0A000097
:00000001FF
