:100000000C9459050C9481050C9481050C94810580
:100010000C9481050C9481050C9481050C94810548
:100020000C9481050C9481050C9481050C94810538
:100030000C9481050C9481050C9481050C94810528
:100040000C9490130C9481050C945E130C9438134B
:100050000C9481050C9481050C9481050C94810508
:100060000C94DA130C948105000103070F1F3F7FE6
:100070000080C0E0F0F8FCFE00000000003E5B4F96
:100080005B3E3E6B4F6B3E1C3E7C3E1C183C7E3CF8
:10009000181C577D571C1C5E7F5E1C00183C180006
:1000A000FFE7C3E7FF0018241800FFE7DBE7FF3096
:1000B000483A060E2629792926407F050507407F04
:1000C00005253F5A3CE73C5A7F3E1C1C08081C1C77
:1000D0003E7F14227F22145F5F005F5F06097F016D
:1000E0007F006689956A606060606094A2FFA29458
:1000F00008047E040810207E201008082A1C080826
:100100001C2A08081E101010100C1E0C1E0C303873
:100110003E3830060E3E0E06000000000000005F74
:1001200000000007000700147F147F14242A7F2A90
:100130001223130864623649562050000807030052
:10014000001C2241000041221C002A1C7F1C2A089E
:10015000083E080800807030000808080808000001
:1001600060600020100804023E5149453E00427F75
:10017000400072494949462141494D331814127FC4
:100180001027454545393C4A494931412111090764
:100190003649494936464949291E000014000000E5
:1001A00040340000000814224114141414140041B7
:1001B00022140802015909063E415D594E7C121174
:1001C000127C7F494949363E414141227F414141AC
:1001D0003E7F494949417F090909013E4141517327
:1001E0007F0808087F00417F41002040413F017F98
:1001F000081422417F404040407F021C027F7F0460
:1002000008107F3E4141413E7F090909063E4151A8
:10021000215E7F09192946264949493203017F0198
:10022000033F4040403F1F2040201F3F4038403F99
:10023000631408146303047804036159494D4300AF
:100240007F4141410204081020004141417F0402E6
:10025000010204404040404000030708002054547D
:1002600078407F284444383844444428384444285B
:100270007F385454541800087E090218A4A49C78AE
:100280007F0804047800447D40002040403D007F0A
:100290001028440000417F40007C047804787C08EA
:1002A0000404783844444438FC18242418182424BE
:1002B00018FC7C08040408485454542404043F44A3
:1002C000243C4040207C1C2040201C3C4030403CD2
:1002D00044281028444C9090907C4464544C440032
:1002E0000836410000007700000041360800020196
:1002F0000204023C2623263C1EA1A161123A404082
:10030000207A3854545559215555794122545478FE
:1003100042215554784020545579400C1E52721297
:100320003955555559395454545939555454580020
:1003300000457C410002457D420001457C407D1224
:1003400011127DF0282528F07C5455450020545486
:100350007C547C0A097F4932494949323A44444431
:100360003A324A4848303A4141217A3A424020786C
:10037000009DA0A07D3D4242423D3D4040403D3C6D
:1003800024FF2424487E4943662B2FFC2F2BFF0992
:1003900029F620C0887E0903205454794100004486
:1003A0007D413048484A32384040227A007A0A0A71
:1003B000727D0D19317D2629292F282629292926E4
:1003C00030484D4020380808080808080808382F29
:1003D00010C8ACBA2F102834FA00007B00000814B3
:1003E0002A142222142A14085500550055AA55AA89
:1003F00055AAFF55FF55FF000000FF00101010FF29
:1004000000141414FF001010FF00FF1010F010F083
:10041000141414FC001414F700FF0000FF00FF1474
:1004200014F404FC141417101F10101F101F1414C0
:10043000141F00101010F0000000001F101010100A
:100440001F10101010F010000000FF1010101010FE
:1004500010101010FF10000000FF140000FF00FF3C
:1004600000001F10170000FC04F4141417101714D8
:1004700014F404F40000FF00F714141414141414FA
:10048000F700F7141414171410101F101F1414146D
:10049000F4141010F010F000001F101F0000001FD7
:1004A00014000000FC140000F010F01010FF10FF0A
:1004B000141414FF141010101F00000000F010FF9F
:1004C000FFFFFFFFF0F0F0F0F0FFFFFF0000000083
:1004D00000FFFF0F0F0F0F0F3844443844FC4A4A07
:1004E0004A347E02020606027E027E0263554941BC
:1004F000633844443C04407E201E2006027E0202F3
:1005000099A5E7A5991C2A492A1C4C7201724C3006
:100510004A4D4D303048784830BC625A463D3E49DD
:100520004949007E0101017E2A2A2A2A2A44445F81
:10053000444440514A444040444A51400000FF0175
:1005400003E080FF000008086B6B08361236243683
:10055000060F090F060000181800000010100030E8
:1005600040FF0101001F01011E00191D1712003C70
:100570003C3C3C000000000000000000230026007E
:100580002900000000080002010000030407000029
:1005900000000000000000000000240027002A00E6
:1005A000DB40A4A62EAFDA0281DA1281DA02818F53
:1005B0002000A1C8D300408DAED580A80102040858
:1005C00010204080010204081020010204081020BD
:1005D00000000000250028002B000404040404048B
:1005E00004040202020202020303030303030000E5
:1005F000600000000000000000000000000000E0BB
:100600000000000000000000000000000001E00009
:1006100000000000000000000000000001F00000E9
:10062000000000000000000000000003F0000000D7
:100630000000000000000000000007F000000000C3
:1006400000000000000000000007F80000000000AB
:1006500000000000000000000FF800000003C000D0
:100660007E000001E0007F0FF800000003C000FEE4
:10067000000001E000FFEFF800000003C000FE00F2
:100680000001E000FFFFF800000003C000F00000E0
:10069000000F007FFE7FC0000003C000F0000000DC
:1006A0000F003FFE7FF83FF1FBCFFCFEF3BC3DEFB8
:1006B000E01FFE7FFF7FFBFFDFFEFEFFBC3DEFE0A4
:1006C0001FC6FFFF7FFBFFDFFEFEFFBC3DEFE00F1D
:1006D000E3C7FE787BC3DE1EF0FFBC3DEF0007FFE3
:1006E00087FC787BC3DE1EF0F83C3DEF0001FFFF86
:1006F000F0007BC3C01EF0F03C3DEF0001F37FE053
:100700003FFBC3CFFEF0F03C3DEF0003E33F807FB3
:10071000FBC3DFFEF0F03C3DEF0007E73C00787BD9
:10072000C3DE1EF0F03C3DEF0007FFBE00787BC348
:10073000DE1EF0F03C3DEF0007FFFE00787BC3DEDD
:100740001EF0F03C3DEF000FFFFE007FFBFFDFFEE1
:10075000F0F03FFDEFE00FFFFF007FFBFFDFFEF05B
:10076000F03FFDEFE00FF9FF003E79F9CF9EF0F08A
:100770001F3DE7E01FF1FF00000000000000000047
:100780000000001F80FF007FFFFFFFFFFFFFFFFF54
:10079000FFE01C007F007FFFFFFFFEB46D888D1817
:1007A000E000001F007FFFFFFFFE95AD7DB577E005
:1007B00000000F007FFFFFFFFEA5AD9D8D19E0003B
:1007C0000006007FFFFFFFFEB5ADEDB57EE0000047
:1007D0000000000180000000000000000000038015
:1007E00000000000000000000007C0000000000042
:1007F0000000000007C00000000000000000000F23
:10080000C00000000000000000001FE00000000029
:1008100000000000001FE0000000000000000000D9
:100820003FE00000000000000000003FF00000007A
:100830000000000000007FF0000000000000001F2A
:10084000F87FF0000000000000003FFE7FF0000095
:1008500000000000003FFF7FF000000000000000EB
:100860001FFFFBE0000000000000000FFFF9FFC0C9
:100870000000000000000FFFF9FFF800000000007A
:100880000007FFF1FFFF00000000000003FC73FF02
:10089000FF80000000000001FE3FFFFF800000001D
:1008A000000000FF1E0FFF000000000000007FFEA0
:1008B0001FFC000000000000003FFFFFF8000000E8
:1008C000000000000FDFFFE0000000000000001F3C
:1008D00019FFC0000000000000003F3CFF000000C6
:1008E00000000000007E7CF8000000000000000016
:1008F0007FFE7C0000000000000000FFFFFC000005
:10090000000000000000FFFFFE00000000000000EB
:1009100000FFFFFE0000000000000001FFEFFE00EE
:1009200000000000000001FFCFFE000000000000FA
:100930000003FF07FE0000000000000003FC07FEAC
:100940000000000000000003F003FE0000000000B3
:100950000000018000FE0000000000000000000018
:100960007E000000000000000000003E00000000CB
:100970000000000000000C000000000000078000E4
:10098000FC000003C0000000078001FC000003C061
:10099000000000078001FC000003C0000000078089
:1009A00001E00000001E000000078001E0000000E0
:1009B0001E007FE3F79FF9FDE7787BDFC0FFF7FFBD
:1009C000BFFDFDFF787BDFC0FFF7FFBFFDFDFF78B8
:1009D0007BDFC0F0F787BC3DE1FF787BDE00F0F7FE
:1009E00087BC3DE1F0787BDE0000F787803DE1E0E9
:1009F000787BDE007FF7879FFDE1E0787BDE00FFFC
:100A0000F787BFFDE1E0787BDE00F0F787BC3DE1D2
:100A1000E0787BDE00F0F787BC3DE1E0787BDE002C
:100A2000F0F787BC3DE1E0787BDE00FFF7FFBFFD1C
:100A3000E1E07FFBDFC0FFF7FFBFFDE1E07FFBDF11
:100A4000C07CF3F39F3DE1E03E7BCFC0000000009F
:100A500000000000000000FFFFFFFFFFFFFFFFFF9F
:100A6000FFC0FFFFFFFFFD68DB111A31C0FFFFFF72
:100A7000FFFD2B5AFB6AEFC0FFFFFFFFFD4B5B3B07
:100A80001A33C0FFFFFFFFFD6B5BDB6AFDC05353F2
:100A9000443133303620616C6C6F636174696F6E02
:100AA000206661696C6564002200FF210000F91472
:100AB000971A11241FBECFEFD8E0DEBFCDBF23E0D1
:100AC000A6E7B1E001C01D92AC32B207E1F711E038
:100AD000A0E0B1E0E0E3FAE302C005900D92A63792
:100AE000B107D9F715E0C8E5D5E004C02197FE01AC
:100AF0000E94071BC735D107C9F70E940D160C9439
:100B00000B1D0C940000089508950895AF92BF92B4
:100B1000CF92DF92EF92FF920F931F93CF93DF93C9
:100B20006C017B018B01040F151FEB015E01AE18F8
:100B3000BF08C017D10759F06991D601ED91FC911A
:100B40000190F081E02DC6010995892B79F7C50147
:100B5000DF91CF911F910F91FF90EF90DF90CF9099
:100B6000BF90AF900895FC01538D448D252F30E048
:100B7000842F90E0821B930B541710F0CF960895AA
:100B800001970895FC01918D828D981761F0A28DD7
:100B9000AE0FBF2FB11D5D968C91928D9F5F9F739D
:100BA000928F90E008958FEF9FEF0895FC01918D53
:100BB000828D981731F0828DE80FF11D858D90E0C0
:100BC00008958FEF9FEF0895FC01918D228D892F5D
:100BD00090E0805C9F4F821B91098F739927089545
:100BE0008AE392E00E94E40521E0892B09F420E0E9
:100BF000822F089580E090E0892B29F00E94F00573
:100C000081110C9400000895FC01A48DA80FB92F48
:100C1000B11DA35ABF4F2C91848D90E001968F7324
:100C20009927848FA689B7892C93A089B1898C9143
:100C3000837080648C93938D848D981306C0028892
:100C4000F389E02D80818F7D80830895EF92FF925C
:100C50000F931F93CF93DF93EC0181E0888F9B8DDF
:100C60008C8D98131AC0E889F989808185FF15C099
:100C70009FB7F894EE89FF896083E889F9898081BC
:100C80008370806480839FBF81E090E0DF91CF918B
:100C90001F910F91FF90EF900895F62E0B8D10E0AD
:100CA0000F5F1F4F0F731127E02E8C8D8E110CC01C
:100CB0000FB607FCFACFE889F989808185FFF5CF67
:100CC000CE010E940406F1CFEB8DEC0FFD2FF11D3C
:100CD000E35AFF4FF0829FB7F8940B8FEA89FB89A4
:100CE00080818062CFCFCF93DF93EC01888D882302
:100CF000B9F0AA89BB89E889F9898C9185FD03C07F
:100D0000808186FD0DC00FB607FCF7CF8C9185FF63
:100D1000F2CF808185FFEDCFCE010E940406E9CF9E
:100D2000DF91CF910895833081F028F4813099F0DC
:100D30008230A9F008958730A9F08830C9F0843056
:100D4000B1F4809180008F7D03C0809180008F7707
:100D500080938000089584B58F7784BD089584B50D
:100D60008F7DFBCF8091B0008F778093B000089586
:100D70008091B0008F7DF9CFCF93DF93282F30E0A3
:100D8000F901EE57FA4F8491F901E454FA4FD491E6
:100D9000F901E652FA4FC491CC23A1F081110E94CF
:100DA0009306EC2FF0E0EE0FFF1FE858FA4FA591E5
:100DB000B491EC91ED2381E090E009F480E0DF91C3
:100DC000CF91089580E090E0FACF1F93CF93DF9307
:100DD000282F30E0F901EE57FA4F8491F901E454DD
:100DE000FA4FD491F901E652FA4FC491CC23A9F0FD
:100DF000162F81110E949306EC2FF0E0EE0FFF1FDB
:100E0000E053FA4FA591B4918FB7F894EC9111117A
:100E100008C0D095DE23DC938FBFDF91CF911F9167
:100E20000895DE2BF8CF1092350210923402109202
:100E30003702109236021092330281E08093320220
:100E40001092310261E082E10E94E50661E083E1F7
:100E50000E94E506E9EBF0E080818E7F808380814F
:100E60008D7F808388E48093B80085E48093BC0004
:100E700083E895E09093300280932F0284E895E018
:100E800090932E0280932D020895CF93DF9390E0EC
:100E9000FC01E454FA4F249186529A4FFC0184914C
:100EA0008823D1F090E0880F991FFC01EA56FA4F91
:100EB000A591B491FC01E053FA4FC591D491611111
:100EC0000EC09FB7F8948C91E22FE0958E238C93FF
:100ED0002881E223E8839FBFDF91CF9108958FB7E8
:100EE000F894EC91E22BEC938FBFF6CF3FB7F894D8
:100EF0008091220290912302A0912402B0912502B8
:100F000026B5A89B05C02F3F19F00196A11DB11D64
:100F10003FBFBA2FA92F982F8827BC01CD01620FA0
:100F2000711D811D911D42E0660F771F881F991F5B
:100F30004A95D1F708958F929F92AF92BF92CF9228
:100F4000DF92EF92FF924B015C010E9476076B01EA
:100F50007C010E9476076C197D098E099F09683E05
:100F6000734081059105A8F321E0821A9108A10838
:100F7000B10888EEC80E83E0D81EE11CF11C811474
:100F80009104A104B10429F7FF90EF90DF90CF9076
:100F9000BF90AF909F908F9008950895FC0163706B
:100FA000668B8481958126813781613039F0633089
:100FB00029F091878087338722870895318720879A
:100FC0009387828708952F923F924F925F926F92FC
:100FD0007F928F929F92AF92BF92CF92DF92EF92C9
:100FE000FF920F931F93CF93DF93CDB7DEB76A972E
:100FF0000FB6F894DEBF0FBECDBF9A8F898F7A836C
:1010000069834A01D22E18870F833701BC2CDC017B
:1010100059962D913C915A972115310509F015C12A
:1010200018968D919C911997681779070CF0D7C184
:101030001A968D919C91481759070CF0D0C14C2CF1
:10104000512CB6E0CB9E600D711D11247C876B87FF
:10105000161617060CF0C3C1EA2DF0E0FA87E987EF
:1010600093E0EE0FFF1F9A95E1F7F88BEF87CF0122
:10107000840F951F181619060CF0B1C1A98DBA8DF1
:1010800058968C91811104C0BFEABD1508F4D39421
:10109000A98DBA8DED91FC9111970284F385E02D15
:1010A000CD010995B5E0DB9EC0011124E981FA81EB
:1010B000FC83EB83312C212C9C0128583F4F388F27
:1010C0002F8B4A2D50E05E8B4D8BEF89F88DE20D12
:1010D000F31D44919E828D82D12CC12C69817A812D
:1010E000620D731D7A8B698B842F90E09C8B8B8BA8
:1010F000E98DFA8DA081B18140FF82C0F1E0BF127D
:101100006FC0AF126DC01C96ED91FC912F81388598
:10111000A4014C0D5D1D69897A89898D9A8D099587
:10112000EB89FC89F595E7954E2F5FEFC51AD50A37
:101130006D817E818D899E89680F791F7E836D8385
:1011400098E0C916D10481F6AFEF2A1A3A0AEB816A
:10115000FC81E40DF51DFC83EB83F5E02F163104D3
:1011600009F0B3CF2F81388526153705B9F0A98D41
:10117000BA8DED91FC91B1E0BB1257C0AB1255C0D6
:1011800069817A816B5F7F4F0088F189E02D83014F
:1011900028E030E0A401898D9A8D0995A98DBA8D3A
:1011A000ED91FC9111970688F789E02DCD016A96A3
:1011B0000FB6F894DEBF0FBECDBFDF91CF911F9168
:1011C0000F91FF90EF90DF90CF90BF90AF909F90E6
:1011D0008F907F906F905F904F903F902F900994E9
:1011E0001E96ED91FC91EF80F88409851A85920195
:1011F0004D815E816B817C81898D9A8D099590CF1F
:101200002F8138852615370509F48ACF31E0B312CE
:1012100007C0A31205C01C96ED91FC91930178CFF5
:101220001E96ED91FC917301E0CF6B857C8564196E
:1012300075090684F785E02D73010F8518899201E1
:10124000A401898D9A8D0995A9CFF90134969491BD
:10125000329745915491D91AB7E0DB9E400D511D4C
:101260001124F901259134913C8B2B8BFA012590A7
:101270003490FA013296749031963491398B3296CB
:1012800064903196449041E04C1518F04A1508F0EE
:101290007FC0662D062C000C770B7C836B83842D1E
:1012A000042C000C990B9E838D83A98DBA8DED9132
:1012B000FC9111970284F385E02DCD010995512C05
:1012C000D12CC12CEA2DF0E0FA87E9872B2D30E0F4
:1012D0003C872B87A401440D511D47FC5A95588F1C
:1012E0004F8B69817A81660D711D67FC7A957E87C7
:1012F0006D877989C71608F051CF2C2D30E04D81CC
:101300005E81420F531FA985BA854A9FC0014B9F3A
:10131000900D5A9F900D1124FC01E80DF91DF88BDA
:10132000EF87852D612C4F89588D420F531F5E8B9F
:101330004D8B671408F050C044244394480E8770C6
:1013400041F4C1010196EB89FC89E20DF31DD490B3
:101350001C01D7FE19C0A98DBA8DED91FC91662DA7
:1013600070E0B1E0BB1219C0AB1217C02D853E85ED
:10137000620F731F0484F585E02D2F8138854D8918
:101380005E89898D9A8D0995DD0C6394842DD1CF6A
:101390001E821D821C821B8288CF4B815C81640F60
:1013A000751FAB85BC856A9FC0016B9F900D7A9FAE
:1013B000900D112469817A81680F791F0684F78561
:1013C000E02DEF80F88409851A859D014F855889A5
:1013D000898D9A8D0995D8CF570CC3948ACF6A9678
:1013E0000FB6F894DEBF0FBECDBFDF91CF911F9136
:1013F0000F91FF90EF90DF90CF90BF90AF909F90B4
:101400008F907F906F905F904F903F902F900895B6
:101410008F929F92AF92CF92EF92FF920F931F9372
:10142000CF93DF93EC01262F898D9A8D009709F0D9
:1014300051C06A30D1F41D861C868D8948E0849F96
:10144000900111248E859F85820F931F9F878E8721
:1014500081E090E0DF91CF911F910F91FF90EF908D
:10146000CF90AF909F908F9008956D3089F3CC8886
:10147000AD888F898823C1F08C859D8536E0C39E19
:10148000800D911D1124488559854817590764F42A
:101490004E855F851D861C8638E0A39EC001112401
:1014A000840F951F9F878E87EA88FB880889198992
:1014B0004E855F856C857D85CE010E94E3072C8972
:1014C0008C859D8546E0249F800D911D11249D876C
:1014D0008C87BECF6A3069F41D861C86FC01369667
:1014E000E4912D898E859F85E29F800D911D1124A9
:1014F000ADCF6D3009F4ACCFFC0134963491631755
:1015000008F4A6CF3196E491E61708F4A1CFFC01C8
:10151000329685909490462F431B342F47E0349F9A
:10152000800C911C1124F401329634913196E4918F
:101530003323A9F1EE2399F1CC88F4013596E49197
:10154000AD884F89442301F10E2E000CFF0BE30FF1
:10155000F11DCE9EA001CF9E500D11246C857D857E
:10156000460F571F68857985641775076CF44E859B
:101570005F851D861C86FC013696E491AE9E400D6B
:10158000511D11245F874E87EA88FB8808891989D5
:101590004E855F856C857D85CE010E94E307F40151
:1015A0003496E4912C898C859D85E29F800D911D58
:1015B00011248DCF6F927F928F929F92AF92BF92A4
:1015C000CF92DF92EF92FF920F931F93CF93DF930F
:1015D000EC016B015A0139014801E881F98102846B
:1015E000F385E02D0995E881F9810288F389E02DE2
:1015F00087019301A501B601CE010995A501480D0A
:10160000591D41505109E881F9810288F389E02D83
:101610009301B601CE010995E881F9810088F1892D
:10162000E02D9401A501B601CE010995C60CD71C89
:10163000B60161507109E881F9810088F189E02DD6
:101640009401A501CE010995E881F9810688F78901
:10165000E02DCE01DF91CF911F910F91FF90EF9080
:10166000DF90CF90BF90AF909F908F907F906F90C2
:1016700009946F927F928F929F92AF92BF92CF9276
:10168000DF92EF92FF920F931F93CF93DF935C0152
:10169000EB016A01490138018701DC01ED91FC9100
:1016A0006217730719F5641675062CF0962D872DB1
:1016B0003A01C92ED82E9601261937092F5F3F4FC0
:1016C000048CF58DE02DA301BE01C5010995DF91C4
:1016D000CF911F910F91FF90EF90DF90CF90BF902F
:1016E000AF909F908F907F906F900895461557050B
:1016F00091F42617370724F0892D4B01C22FD82FDC
:101700009E01281939092F5F3F4F068CF78DE02D78
:10171000A601B401DACF0284F385E02D0995D50145
:10172000ED91FC910488F589E02D83019401A601D7
:10173000BE01C5010995D501ED91FC910688F78997
:10174000E02DC501DF91CF911F910F91FF90EF9098
:10175000DF90CF90BF90AF909F908F907F906F90D1
:101760000994EF92FF920F931F93DC011A960D914B
:101770001C911B9718962D913C911997ED91FC9116
:1017800000A0F1A1E02D7B0150E040E070E060E0BE
:1017900009951F910F91FF90EF9008954F925F92DE
:1017A0006F927F928F929F92AF92BF92CF92DF9271
:1017B000EF92FF920F931F93CF93DF936C012B0156
:1017C0005A0139014801DC01ED91FC910284F38555
:1017D000E02D0995E201640C751CD601ED91FC9198
:1017E000C615D7055CF40088F189E02D87019401C6
:1017F000A501BE01C60109952196EFCF0688F7899C
:10180000E02DC601DF91CF911F910F91FF90EF90D6
:10181000DF90CF90BF90AF909F908F907F906F9010
:101820005F904F9009948F929F92AF92BF92CF9208
:10183000DF92EF92FF920F931F93CF93DF93EC0110
:101840005B014A016901E881F9810284F385E02D99
:10185000099595012C0D3D1D21503109E881F98133
:101860000488F589E02D78018401A401B501CE0139
:101870000995E881F9810688F789E02DCE01DF918D
:10188000CF911F910F91FF90EF90DF90CF90BF907D
:10189000AF909F908F9009948F929F92AF92BF923A
:1018A000CF92DF92EF92FF920F931F93CF93DF932C
:1018B000EC015B014A0169017801E881F981028448
:1018C000F385E02D0995C80CD91C8601015011093A
:1018D000E881F9810488F589E02D9501A401B5011D
:1018E000CE010995E881F9810688F789E02DCE01BE
:1018F000DF91CF911F910F91FF90EF90DF90CF90EC
:10190000BF90AF909F908F900994EF92FF920F93AA
:101910001F93DC01ED91FC9100A0F1A1E02D099550
:101920001F910F91FF90EF9008950F931F93DC018B
:10193000ED91FC91068CF78DE02D09951F910F918B
:1019400008950F931F93DC01ED91FC91048CF58DAC
:10195000E02D09951F910F910895DC01ED91FC9107
:101960000084F185E02D09943F924F925F926F922F
:101970007F928F929F92AF92BF92CF92DF92EF921F
:10198000FF920F931F93CF93DF935C017B014A017A
:101990006901390187E0680E711C93E075946794C2
:1019A0009A95E1F72B01400E511E10E000E0312C1A
:1019B000D0E0C0E0CE0187709927330C892B59F411
:1019C000FE0183E0F595E7958A95E1F7E00FF11FB9
:1019D000E80DF91D349037FE0AC021E030E0A70180
:1019E000B5016C0F7D1F83EE92E00E94AD0C219635
:1019F000CC16DD06F9F68FEFE81AF80A060D171D6A
:101A0000E414F504A9F6DF91CF911F910F91FF9097
:101A1000EF90DF90CF90BF90AF909F908F907F908E
:101A20006F905F904F903F9008952F923F924F920A
:101A30005F926F927F928F929F92AF92BF92CF925E
:101A4000DF92EF92FF920F931F93CF93DF9300D01B
:101A500000D000D0CDB7DEB73C016A013E832D83B4
:101A6000FC82EB825801A41AB50AB7FE03C0B194F8
:101A7000A194B1088D809E80861A970A97FE03C0B4
:101A80009194819491088A149B045CF0902F812F8B
:101A90000D811E819D838E839C2D8D2D6B01692F61
:101AA000782F0C151D055CF09D818E817E836D83E2
:101AB000692F782F902F812F8601C92ED82E1601DD
:101AC000201A310A2B012D813E81421A530A57FEFA
:101AD00003C0519441945108710137FE03C03FEF98
:101AE000E31AF30AF594E7948D819E818617970790
:101AF0005CF5A1E0B0E0BA83A983C016D1064CF131
:101B0000D301ED91FC910484F585E02D2B813C817E
:101B1000A8016D817E818A149B041CF04D815E8139
:101B2000B801C3010995E418F508F7FE0AC02D8134
:101B30003E8189819A81280F391F3E832D83E20CD3
:101B4000F31C0F5F1F4FD9CF2FEF3FEF3A8329834D
:101B5000D4CF26960FB6F894DEBF0FBECDBFDF916F
:101B6000CF911F910F91FF90EF90DF90CF90BF909A
:101B7000AF909F908F907F906F905F904F903F902D
:101B80002F900895EF92FF920F931F93CF93DF93BF
:101B9000EC01EC80FD806E157F050CF070C057FFE6
:101BA00004C0240F351F50E040E08E819F81FA0170
:101BB000E20FF31F8E179F071CF49C01241B350BAB
:101BC000121613060CF05BC0922F842F8695869513
:101BD00086958E9DD0018F9DB00D11246A0F7B1FBD
:101BE000AF8DB8A1A60FB71F477049F188E0841BDD
:101BF000482F682F70E0FB01E059FF4FE491281750
:101C000008F063C0621B71092FEF30E002C0359508
:101C100027956A95E2F7E2230130110539F0B0F11A
:101C20000230110561F58C91E82702C08C91E82BF8
:101C3000EC93941720F12C813D81A20FB31FE92F63
:101C4000E41BE83078F00230110521F58E2F9C91CD
:101C500090959C932C813D81A20FB31F88508830B2
:101C6000B0F7E770EE2359F0F0E0E859FF4FE49148
:101C700001301105F9F010F10230110519F1DF9171
:101C8000CF911F910F91FF90EF900895E0958C9167
:101C9000E823CECF81E00115110509F480E081959C
:101CA0009E2F8C932C813D81A20FB31F98509830AA
:101CB000C0F7D7CF8C91E82BEC93E1CFE0958C91D6
:101CC000E823FACF8C91E827F7CF0130110509F40A
:101CD000ADCFE0F20230110509F4A5CFAE0DBF1D66
:101CE000AECF0F931F93CF93DF9377FF04C0260FE0
:101CF000371F70E060E0DC011496CD91DC91FB01B0
:101D0000E20FF31FCE17DF071CF49E01261B370BD3
:101D1000121613064CF5FA0157FD3796A3E0F59518
:101D2000E795AA95E1F7EC9FD001ED9FB00DFC9FE0
:101D3000B00D11246A0F7B1FDC015F96ED91FC91C1
:101D4000E60FF71F4770552781E090E001C0880F2C
:101D50004A95EAF7482F0130110559F0A8F02E0FE7
:101D60003F1F02301105E1F0DF91CF911F910F91DC
:101D700008952E0F3F1FE217F307B1F38191DF01A2
:101D80001197842B8C93F7CF80952E0F3F1FE2176E
:101D9000F30751F39191DF01119798239C93F7CFAB
:101DA000E217F30709F38191DF01119784278C93E0
:101DB000F7CF0F931F93FA01DC0156964C9156977B
:101DC0004230E9F04330A1F1413061F514964D9174
:101DD0005C91DA01AE1BBF0BFD01E21BF30B77FD3B
:101DE0000BC0DC0116964D915C916417750724F4C5
:101DF000AB01BF010E94710E1F910F9108951496BF
:101E00004D915C91DA01A61BB70BBD0161507109C0
:101E1000DC0116964D915C91DA01AE1BBF0BFD0102
:101E2000E21BF30B77FDE8CFAF010E94C20DE4CFB8
:101E300016964D915C91DA01A61BB70BBD0161505E
:101E40007109CDCF0F931F93FA01DC0156964C9187
:101E500056974230A9F0433091F1413019F514966C
:101E60004D915C91DA01AE1BBF0BFD013197F7FD7F
:101E700004C0AB01BF010E94C20D1F910F910895D4
:101E800014964D915C91DA01A61BB70BBD01DC01E4
:101E900016964D915C91DA01AE1BBF0BFD01319797
:101EA000621B730BF7FDE9CFDC0116964D915C9137
:101EB000E417F50714F7AF010E94710EDECF1696F6
:101EC0004D915C91DA01A61BB70BBD01621B730B30
:101ED000CECFFC0177FD64C08085918568177907B6
:101EE0000CF05EC057FD5CC082859385481759078A
:101EF0000CF056C086898230B1F0833029F18130F0
:101F000041F484819581841B950BAB01BC01615028
:101F100071092130310509F108F443C0223031053F
:101F200009F463C0089584819581DC01A61BB70B79
:101F3000BD016150710986819781DC01A41BB50B3D
:101F4000AD0141505109E5CF86819781861B970BE2
:101F5000BA01AC0141505109DCCFCA0157FD0796C7
:101F6000A3E095958795AA95E1F7A481B5818A9F0D
:101F700090018B9F300D9A9F300D1124620F731FBB
:101F8000078CF0A1E02DE60FF71F4770552721E0E1
:101F900030E001C0220F4A95EAF78081822B8083CE
:101FA0000895CA0157FD079633E0959587953A95B0
:101FB000E1F7A481B5818A9F90018B9F300D9A9F94
:101FC000300D1124620F731F078CF0A1E02DE60F76
:101FD000F71F4770552781E090E001C0880F4A95B0
:101FE000EAF7809590818923DACFCA0157FD0796D9
:101FF00023E0959587952A95E1F7A481B5818A9F7D
:1020000090018B9F300D9A9F300D1124620F731F2A
:10201000078CF0A1E02DE60FF71F4770552721E050
:1020200030E001C0220F4A95EAF780818227B7CFBE
:1020300008958EBD00000DB407FEFDCF8EB5089546
:102040008CBD9DBD0895089585ED8093BC00809161
:10205000BC0084FDFCCF1092330208952091D6017C
:10206000260F3327331F21323105ECF42091330240
:10207000FC0190E080E0243069F082E00895A091B6
:10208000D6012191AC014A545E4FA40FB52FB11D6A
:102090002C930196861798F38091D601680F609370
:1020A000D60180E0089581E00895E09135028091A5
:1020B0003402E81730F4F0E0EA56FE4F808190E0F9
:1020C00008958FEF9FEF089590913502809134022B
:1020D0002FEF3FEF981748F4E92FF0E0EA56FE4F54
:1020E000208130E09F5F90933502C901089580916F
:1020F000340290913502891B990B0895CF92DF929B
:10210000EF92FF920F931F93CF93DF937C01CB014C
:102110008A0120913902222389F0EB016B01C40E60
:10212000D51ECC15DD0569F06991D701ED91FC91C3
:102130000190F081E02DC7010995F3CF642F0E9433
:102140002E10C801DF91CF911F910F91FF90EF905A
:10215000DF90CF900895CF93DF931F92CDB7DEB776
:102160006983209139022223F9F02091360220322E
:1021700058F021E030E0FC013383228390E080E0DE
:102180000F90DF91CF91089580913702E82FF0E012
:10219000EA58FE4F998190838F5F80933702809336
:1021A000360281E090E0ECCF61E0CE0101960E9422
:1021B0002E10F7CF2091360281E0213208F044C082
:1021C000809133028111FCCF8091380292E090938C
:1021D000330291E0909332029FEF9093F9011092B5
:1021E0001B0220931A02A6E7B1E0EAEFF1E090E0CB
:1021F000291331C010921C0290911C02880F892B68
:1022000080931C0280913102813049F51092310295
:1022100080911C028093BB008091BC0083FDF8CFAD
:1022200085EC8093BC00809133028230E1F3809191
:10223000F9018F3FB1F08091F9018032A1F08091D6
:10224000F901803391F084E0109237021092360247
:102250001092390208953D9131939F5FC9CF85EE69
:10226000E0CF80E0F1CF82E0EFCF83E0EDCFFF92CF
:102270000F931F93CF93DF93F82ED92FC62F809102
:10228000000390910103009709F452C020910403C8
:1022900031E03093390220933802109237021092C5
:1022A0003602DC01ED91FC910190F081E02D60E0BF
:1022B00009950F2D1D2FD1E0FF24F394C15080917B
:1022C000000390910103CF3F61F1D032C8F00E942A
:1022D000DA10809100039091010320910403F092A1
:1022E0003902209338021092370210923602DC0134
:1022F000ED91FC910190F081E02D60E00995D1E035
:102300008091000390910103F8016491DC01ED914B
:10231000FC910190F081E02D0995DF5F0F5F1F4F69
:10232000CDCFDF91CF911F910F91FF900C94DA10D8
:10233000E0911003F0911103908180911603809534
:10234000892380830F2D1D2FC15008F438C0F80158
:1023500084912091FE023091FF02232B29F00E94EC
:1023600019100F5F1F4FF0CF28E030E040E8E091F8
:102370000C03F0910D0390911403582F5423D9F0BE
:102380005081952B9083E0910E03F0910F03908183
:1023900050911503952B9083E0910E03F0910F035C
:1023A00050819091150390959523908346952150E7
:1023B0003109E9F6D6CF508190959523E3CFDF918F
:1023C000CF911F910F91FF9008951F93CF93DF93AB
:1023D000EC018D8D9E8D009721F1162F29A131E002
:1023E000309339022093380210923702109236024D
:1023F000DC01ED91FC910190F081E02D60E0099508
:102400008D8D9E8DDC01ED91FC910190F081E02D90
:10241000612F09958D8D9E8DDF91CF911F910C9429
:10242000DA10ADA5BEA59C918BA9809589238C93CC
:102430008B8D9C8D892B31F0862FDF91CF911F9151
:102440000C94191028E030E080E8A9A5BAA599A954
:10245000462F4823C1F04C91942B9C93ABA5BCA56F
:102460009C914AA9942B9C93ABA5BCA54C919AA98D
:10247000909594239C9386952150310931F7DF91F3
:10248000CF911F9108954C9190959423E6CF1F937F
:10249000CF93DF93EC01162F8D8D9E8D892BB1F19B
:1024A0002FA938AD49AD5AAD60E074E284EF90E0F9
:1024B0000E94E51A20513109410951095695479565
:1024C000379527952093B80066EA111167EACE0187
:1024D0000E94E5118D8D9E8D892B41F12BAD3CAD78
:1024E0004DAD5EAD60E074E284EF90E00E94E51ACD
:1024F000205131094109510956954795379527953E
:102500002093B800DF91CF911F9108958B8D9C8D02
:10251000892B21F08DA99EA90E942010EFA5F8A972
:1025200090818CA9809589238083CECFEFA5F8A9CF
:1025300080819CA9892B8083E5CF90E080E008957D
:10254000FB0101900020E9F73197AF01461B570BC3
:10255000DC01ED91FC910280F381E02D09948F92D2
:102560009F92AF92BF920F931F93CF93DF93CDB7FC
:10257000DEB7A1970FB6F894DEBF0FBECDBF19A28C
:10258000423008F44AE08E010F5D1F4F842E912CDB
:10259000B12CA12CA50194010E94E51AE62FB901E6
:1025A000CA01EA3004F5E05DD801EE938D01232BDA
:1025B000242B252B79F790E080E0109729F0BD01BE
:1025C0008AE392E00E94A012A1960FB6F894DEBFB3
:1025D0000FBECDBFDF91CF911F910F91BF90AF90F4
:1025E0009F908F900895E95CDFCFCF92DF92EF92BA
:1025F000FF92CF93DF936B017C016DE28AE392E05F
:102600000E942606EC0166277727CB016C197D090D
:102610008E099F094AE00E94AF128C0F9D1FDF9127
:10262000CF91FF90EF90DF90CF9008952091E90235
:102630003091EA02C901079697FD079623E0959528
:1026400087952A95E1F72091E7023091E802829F71
:10265000A001839F500D929F500D112470E060E007
:1026600080910203909103030C94FD1C0E94EF1CC7
:102670001F920F920FB60F9211242F933F934F93F7
:102680005F936F937F938F939F93AF93BF93EF93DA
:10269000FF938AE392E00E940406FF91EF91BF91BD
:1026A000AF919F918F917F916F915F914F913F91EA
:1026B0002F910F900FBE0F901F9018951F920F92A1
:1026C0000FB60F9211242F938F939F93EF93FF9345
:1026D000E0914A02F0914B028081E0915002F0912A
:1026E000510282FD1BC09081809153028F5F8F73D6
:1026F00020915402821741F0E0915302F0E0E65C31
:10270000FD4F958F80935302FF91EF919F918F9191
:102710002F910F900FBE0F901F9018958081F4CFCE
:102720001F920F920FB60F9211242F933F938F9306
:102730009F93AF93BF9380911E0290911F02A0912F
:102740002002B091210230911D0223E0230F2D378A
:1027500058F50196A11DB11D20931D0280931E0204
:1027600090931F02A0932002B09321028091220235
:1027700090912302A0912402B09125020196A11DFF
:10278000B11D8093220290932302A0932402B09360
:102790002502BF91AF919F918F913F912F910F9003
:1027A0000FBE0F901F90189526E8230F0296A11DCB
:1027B000B11DD2CF1F920F920FB60F9211242F93FB
:1027C0003F934F935F936F937F938F939F93AF93B9
:1027D000BF93EF93FF938091B900887F803609F40F
:1027E0004AC0F0F5883209F4A7C018F5803109F421
:1027F0009BC0B8F4882309F4F9C0883009F494C068
:10280000FF91EF91BF91AF919F918F917F916F91C8
:102810005F914F913F912F910F900FBE0F901F909E
:102820001895883109F488C0803251F78093F901F6
:1028300014C0803409F49DC040F48033B9F3883368
:10284000F9F68093F90185ECB0C0803509F485C0B4
:10285000883509F496C0883499F60E942410D0CFA8
:10286000883909F48CC038F5883729F050F4883657
:1028700011F0803729F683E0809333021092F8013B
:1028800057C0883809F47BC0803919F0803809F0C6
:10289000B7CF8091F801803208F071C0E091F80163
:1028A00081E08E0F8093F8018091BB00F0E0E85248
:1028B000FE4F80833DC0803B39F0E0F4803A09F45C
:1028C00079C0883A09F09CCF84E08093330210925B
:1028D000D7011092D601E0912F02F09130020995B4
:1028E0008091D60181110FC081E08093D6011092B2
:1028F000B60109C0803C09F4A6CF883C09F4A3CFF7
:10290000883B09F07DCFE091D70181E08E0F809365
:10291000D701F0E0EA54FE4F80818093BB00909194
:10292000D7018091D60129C080911C028093BB0001
:1029300085EC8093BC0064CF90911B0280911A02B9
:10294000981758F5E0911B0281E08E0F80931B02CF
:10295000F0E0E650FE4F8081E9CFE0911B0281E07C
:102960008E0F80931B028091BB00F0E0E650FE4F7B
:10297000808390911B0280911A029817C8F285E813
:10298000D8CFE0911B0281E08E0F80931B028091D3
:10299000BB00F0E0E650FE4F80838091320281114F
:1029A0005CCF81E08093310284EA8093BC00109276
:1029B000330226CF85EC8093BC00109233028091C5
:1029C000F801803230F4E091F801F0E0E852FE4F77
:1029D00010826091F80170E0E0912D02F0912E02DA
:1029E00088ED91E009951092F8010ACF1092F90153
:1029F00034CF10923D0210923C0288EE93E0A0E0AA
:102A0000B0E080933E0290933F02A0934002B093C7
:102A100041022AE031E030933B0220933A0225EC58
:102A200030E0309347022093460224EC30E03093AC
:102A300049022093480220EC30E030934B0220936F
:102A40004A0221EC30E030934D0220934C0222ECFC
:102A500030E030934F0220934E0226EC30E030936A
:102A6000510220935002109253021092540210927D
:102A70005502109256021092DA021092D9028093F7
:102A8000DB029093DC02A093DD02B093DE028CE1C6
:102A900091E09093D8028093D70210922303109272
:102AA0002203109225031092240310922703109200
:102AB000260364E070E090E080E00E94321C009702
:102AC00009F1909323038093220323E030E03093B5
:102AD0002503209324032091260330912703232BE1
:102AE00011F4FC01108283E090E09093270380931F
:102AF000260366E571E080912203909123030E94F2
:102B0000041D14C08091220390912303009711F0BB
:102B10000E94A91B109223031092220310922703F4
:102B20001092260310922503109224031092E602BD
:102B30001092E50220E830E03093E8022093E702AB
:102B400080E490E09093EA028093E9023093EC02F3
:102B50002093EB029093EE028093ED021092F90223
:102B60001092F0021092EF021092F2021092F10213
:102B700081E08093F8028093F7022FEF3FEF3093CC
:102B8000F6022093F5023093F4022093F30280932F
:102B9000FA021092FB021092FD021092FC028EE2E9
:102BA00091E09093E4028093E3021092FF0210926E
:102BB000FE0287ED92E09093010380930003109250
:102BC0000303109202038FEF80930703809308039F
:102BD0008093090380930A0384E080930B0380E5CC
:102BE000809318031092190380E89AE1A6E0B0E000
:102BF00080931A0390931B03A0931C03B0931D03AF
:102C000080EA96E8A1E0B0E080931E0390931F0352
:102C1000A0932003B09321030895789484B5826033
:102C200084BD84B5816084BD85B5826085BD85B570
:102C3000816085BD80916E00816080936E001092EE
:102C40008100809181008260809381008091810069
:102C500081608093810080918000816080938000FA
:102C60008091B10084608093B1008091B000816058
:102C70008093B00080917A00846080937A00809184
:102C80007A00826080937A0080917A0081608093DC
:102C90007A0080917A00806880937A001092C10057
:102CA0000E941307E0914A02F0914B0282E0808378
:102CB000E0914602F09147021082E0914802F091C3
:102CC00049028FEC808310925202E0914E02F09103
:102CD0004F0286E08083E0914C02F0914D028081AA
:102CE00080618083E0914C02F0914D028081886088
:102CF0008083E0914C02F0914D0280818068808356
:102D0000E0914C02F0914D0280818F7D808360E0E4
:102D100083E00E94450760E085E00E94450760E08F
:102D200084E00E94450783E00E94BC06909328023D
:102D3000809327028091020390910303892B11F164
:102D40000E9416132091E9023091EA028091E70275
:102D50009091E802213231050CF04AC0B90160526D
:102D6000710977FF02C06F5F7F4F75956795835735
:102D7000910997FD019600E210E023E730E04EEE66
:102D800055E049C02091E9023091EA02C901079655
:102D900097FD0796B3E095958795BA95E1F7209151
:102DA000E7023091E802AC01429FC001439F900DC1
:102DB000529F900D11240E940D1B9093030380934A
:102DC0000203892B09F0BCCFCEE8DAE0FE01649162
:102DD000662339F08AE392E00E9426062196892B29
:102DE000A9F76AE571E08AE392E00E94A012FFCFA2
:102DF000B9016054710977FF02C06F5F7F4F75950D
:102E000067958255910997FD019600E410E022E54F
:102E100030E04EEC57E0959587950E94B40C82E027
:102E2000809305038091000390910103892B09F49D
:102E3000A3C18CE3809304030E94130780910B03CA
:102E400087FD1EC061E00E94450761E080910B0391
:102E50000E94E50661E070E080E090E00E949B0740
:102E600060E080910B030E94E5066AE070E080E07C
:102E700090E00E949B0761E080910B030E94E506B1
:102E80008091000390910103892B09F434C22091B1
:102E90001A0330911B0340911C0350911D0360E005
:102EA00074E284EF90E00E94E51A20513109410953
:102EB000510956954795379527952093B80064E0BA
:102EC00088EB95E00E9437116091E902615083EE32
:102ED00092E00E94E51164E084EB95E00E943711D6
:102EE0008091050360E1813009F064E183EE92E0B6
:102EF0000E94E51164E080EB95E00E94371180911B
:102F0000E7029091E8028038910509F01FC2809194
:102F1000E9029091EA028032910509F003C264E06F
:102F20008CEA95E00E94371169ED83EE92E00E94F1
:102F3000E5118091050362E2813009F061EF83EED3
:102F400092E00E94E51166E080EA95E00E94371168
:102F50008091000390910103892B09F40EC2209106
:102F60001E0330911F03409120035091210360E024
:102F700074E284EF90E00E94E51A20513109410982
:102F8000510956954795379527952093B800812C80
:102F900074E2972E74EFA72EB12CE0E04E2EE0E005
:102FA0005E2EF2E03F2ECC24C394D12CB4E1EB2E64
:102FB000F12C6624639483E00E94BC068C019093FC
:102FC0002C0280932B0285E00E94BC06892B09F01D
:102FD00090C210922A02109229026DE571E08AE3F4
:102FE00092E00E94A0126AE571E08AE392E00E94FA
:102FF000A0126091290270912A02072E000C880B02
:10300000990B97FFC4C10E94F5126AE571E08AE34B
:1030100092E00E94A0120E9416133092F7023092A2
:10302000F802D092F602C092F502D092F402C09259
:10303000F302F092F002E092EF02F092F202E092DC
:10304000F1026CE671E083EE92E00E94A0128091A2
:10305000000390910103892B09F49DC120911A036B
:1030600030911B0340911C0350911D03C501B40115
:103070000E94E51A20513109410951095695479599
:10308000379527952093B80065E088EA9AE00E947A
:1030900037116091E702615083EE92E00E94E511E2
:1030A0002091E9023091EA02C901079697FD07963F
:1030B00023E0959587952A95E1F72091E7023091D5
:1030C000E802829F8001839F100D929F100D1124B2
:1030D000C0910203D09103038091000390910103FA
:1030E0000C0F1D1F009709F4B8C1209104036092D2
:1030F0003902209338021092370210923602DC0116
:10310000ED91FC910190F081E02D60E40995772428
:10311000739480910003909101030C171D0709F42B
:1031200051C1BFE1B715D0F40E94DA1080910003BD
:103130009091010320910403609239022093380298
:103140001092370210923602DC01ED91FC91019051
:10315000F081E02D60E40995772473948091000359
:10316000909101036991DC01ED91FC910190F08156
:10317000E02D09957394CDCF61E0809109030E9401
:10318000450761E080910A030E9445078091090389
:10319000082E000C990BFC01E652FA4FE491F0E086
:1031A000EE0FFF1FE053FA4F259134913093110336
:1031B00020931003FC01E454FA4FE491E0931603CA
:1031C00080910A03082E000C990BFC01E652FA4F7D
:1031D000E491F0E0EE0FFF1FE053FA4FA591B49198
:1031E000B0931303A0931203FC01E454FA4FE4914B
:1031F000E09317038C91E82BEC938091FE02909161
:10320000FF02892B09F434C0CFB7F89480912602CD
:10321000811127C0E4EEF5E08491E6ECF5E09491AD
:10322000E82FF0E0EE0FFF1FEA56FA4FA591B49198
:10323000EC91E92321F461E08AE00E94E50661E077
:103240008AE00E9445078CB580618CBD8CB5806496
:103250008CBD61E08DE00E94450761E08BE00E943B
:103260004507809126028F5F80932602CFBFE6CD6F
:1032700061E0809107030E94450761E080910803A7
:103280000E94450780910703082E000C990BFC0152
:10329000E652FA4FE491F0E0EE0FFF1FE053FA4FD1
:1032A0002591349130930D0320930C03FC01E454D9
:1032B000FA4FE491E093140380910803082E000C68
:1032C000990BFC01E652FA4FE491F0E0EE0FFF1F7C
:1032D000E053FA4FA591B491B0930F03A0930E035E
:1032E000FC01E454FA4FE491E09315038C91E095CE
:1032F000E823EC93A3CD8091FE029091FF02892BED
:1033000031F080911803909119030E942010E091F0
:103310001203F09113039081809117038095892304
:103320008083CDCD8034910509F0FECD63E089EA3C
:1033300095E00E943711809105036FE9813009F013
:103340006FEC83EE92E00E94E511EECD80369105A0
:1033500009F0EACD8091E9029091EA02409709F0E4
:10336000E3CD63E086EA95E00E9437118091050382
:1033700060E1813031F36FEAE4CFE0911203F09124
:103380001303808190911703892B808300CE4AE03C
:103390000E94AF123ACE8091FE029091FF02892BDB
:1033A00031F080911803909119030E942010E09150
:1033B0001203F09113039081809117038095892364
:1033C000808362CE0E94DA10809100039091010305
:1033D000892B09F484C020911E0330911F03409172
:1033E000200350912103C501B4010E94E51A205128
:1033F00031094109510956954795379527952093ED
:10340000B80080912B0290912C0290932802809317
:1034100027026091290270912A02072E000C880B66
:10342000990B97FF80C00E94F5126AE571E08AE36C
:1034300092E00E94A01263E070E080E090E00E94C1
:103440009B074114510409F4B6CD0E94F00588236E
:1034500009F4B1CD0E940000ACCDE0911003F091D1
:103460001103808190911603892B80830C171D070F
:1034700009F4AACF89912091FE023091FF02232BFB
:1034800019F00E941910F2CF28E030E040E8E091F6
:103490000C03F0910D0390911403542F5823D9F08D
:1034A0005081952B9083E0910E03F0910F03908152
:1034B00050911503952B9083E0910E03F0910F032B
:1034C00050819091150390959523908346952150B6
:1034D0003109E9F6CBCF508190959523E3CFE09168
:1034E0001203F0911303808190911703892B80833D
:1034F00088CF80912702909128020817190709F4B4
:1035000080CFC0912902D0912A0284E00E94BC069B
:103510000817190731F02196D0932A02C093290287
:1035200070CF2197F9CF4AE00E94AF127ECF8EE292
:1035300091E09093E4028093E302809102039091E2
:103540000303009711F00E94A91B80912203909120
:103550002303009711F00C94A91B08952F923F921A
:103560004F925F926F927F928F929F92AF92BF9293
:10357000CF92DF92EF92FF920F931F93CF93DF933F
:10358000CDB7DEB7CA1BDB0B0FB6F894DEBF0FBE9C
:10359000CDBF09942A88398848885F846E847D84E9
:1035A0008C849B84AA84B984C884DF80EE80FD80EB
:1035B0000C811B81AA81B981CE0FD11D0FB6F89461
:1035C000DEBF0FBECDBFED010895A1E21A2EAA1BEA
:1035D000BB1BFD010DC0AA1FBB1FEE1FFF1FA217C3
:1035E000B307E407F50720F0A21BB30BE40BF50BC0
:1035F000661F771F881F991F1A9469F76095709549
:10360000809590959B01AC01BD01CF010895EE0F0F
:10361000FF1F0590F491E02D09940F931F93CF9312
:10362000DF938230910510F482E090E0E0912A036C
:10363000F0912B0330E020E0B0E0A0E0309799F467
:103640002115310509F44AC0281B390B24303105F6
:10365000D8F58A819B816115710589F1FB019383FE
:103660008283FE0111C0408151810281138148177C
:103670005907E0F04817590799F4109761F012962E
:103680000C93129713961C933296CF01DF91CF9132
:103690001F910F91089500932A0310932B03F4CFE9
:1036A0002115310551F04217530738F0A901DB010C
:1036B0009A01BD01DF01F801C1CFEF01F9CF90936D
:1036C0002B0380932A03CDCFFE01E20FF31F8193DA
:1036D00091932250310939832883D7CF2091280331
:1036E00030912903232B41F42091020130910301F1
:1036F0003093290320932803209100013091010188
:103700002115310541F42DB73EB740910401509188
:103710000501241B350BE0912803F0912903E217E2
:10372000F307A0F42E1B3F0B2817390778F0AC01E4
:103730004E5F5F4F2417350748F04E0F5F1F5093C1
:10374000290340932803819391939FCFF0E0E0E019
:103750009CCFCF93DF930097E9F0FC01329713825F
:103760001282A0912A03B0912B03ED0130E020E0FA
:103770001097A1F420813181820F931F209128039B
:10378000309129032817390709F061C0F093290304
:10379000E0932803DF91CF910895EA01CE17DF0768
:1037A000E8F54A815B819E0141155105B1F7E901B8
:1037B000FB83EA8349915991C40FD51FEC17FD078C
:1037C00061F4808191810296840F951FE9019983AC
:1037D0008883828193819B838A83F0E0E0E0129664
:1037E0008D919C9113970097B9F52D913C9111976C
:1037F000CD010296820F931F209128033091290357
:103800002817390739F6309751F510922B0310928B
:103810002A03B0932903A0932803BCCFD383C28388
:1038200040815181840F951FC817D90761F44E5FFD
:103830005F4F88819981480F591F518340838A8146
:103840009B81938382832115310509F0B0CFF093DA
:103850002B03E0932A039ECFFD01DC01C0CF13822E
:103860001282D7CFB0E0A0E0E8E3FCE10C94B01AFC
:103870008C01009751F4CB010E940D1B8C01C801F3
:10388000CDB7DEB7E0E10C94CC1AFC01E60FF71FD0
:103890009C0122503109E217F30708F49DC0D901B9
:1038A000CD91DC911197C617D70798F0C530D10597
:1038B00030F3CE0104978617970708F3C61BD70B82
:1038C0002297C193D1936D937C93CF010E94A91B42
:1038D000D6CF5B01AC1ABD0A4C018C0E9D1EA09187
:1038E0002A03B0912B03512C412CF12CE12C109781
:1038F00031F580912803909129038815990509F0E5
:103900005CC04616570608F058C08091000190919F
:103910000101009741F48DB79EB740910401509189
:103920000501841B950BE817F90708F055C0F093C3
:103930002903E0932803F90171836083A0CF8D915F
:103940009C91119712966C90129713967C901397F6
:10395000A815B90559F56C0142E0C40ED11CCA1472
:10396000DB0420F1AC014A195B09DA0112961597C4
:1039700080F06282738251834083D9016D937C937E
:10398000E114F10471F0D7011396FC93EE931297B2
:1039900076CF22968C0F9D1FF90191838083F301CE
:1039A000EFCFF0932B03E0932A0369CF4816590613
:1039B00008F42C017D01D3019ACFCB010E940D1B8D
:1039C0007C01009749F0AE01B8010E94F41CC801C7
:1039D0000E94A91B870153CF10E000E050CF81E087
:1039E00090E0F8940C940B1DFB01DC0102C00190E7
:1039F0000D9241505040D8F70895DC0101C06D93FD
:103A000041505040E0F70895FB01DC0101900D9218
:103A10000020E1F7089515E0C8E5D5E004C0FE01F7
:103A20000E94071B2196C935D107C9F7F894FFCF2B
:103A300000002C0380000000000026068605B30568
:103A40007306E405C205D60500000000AB107E1029
:103A50009D12850577106410551000000000080ABB
:103A600086059D122310690F8505AD0C850CA10CF0
:103A7000950C150D8505CE074712D90E220FCE0BDA
:103A8000B10B390BDA0A4D2643000D0A004275745A
:103A90006F6E6120626173696C6469004F6B2042D4
:063AA00075746F6E00005A
:00000001FF
